:100000001EC10000BCC40000EBC400001AC5000003
:1000100049C5000078C50000A7C50000D6C500008E
:1000200005C600003DC100003BC1000039C1000011
:1000300037C100000C94520D33C1000031C10000E3
:100040002FC100002DC100002BC1000029C10000FC
:1000500027C1000025C1000023C1000018C6000010
:100060001FC100000C9492090C94C80919C100002A
:1000700017C1000015C1000013C1000011C100002C
:100080000FC100000DC100000BC1000009C100003C
:100090000C94340A0C946A0A03C1000001C10000E8
:1000A000FFC00000FDC00000FBC00000F9C0000060
:1000B000F7C00000F5C00000F3C00000F1C0000070
:1000C000EFC00000EDC00000EBC000000C94D60AA9
:1000D0000C940C0BE5C000000C94780B0C94AE0B48
:1000E000DFC000005E076307680772077C07F5073B
:1000F00086078E079607A007AA07B407C307CD0790
:10010000F507D707E107EB071608190808080C08D8
:10011000120850081D08210827082B082F08350849
:1001200039083D085008430847084B0800000A0BEF
:1001300002090C0D0E080703040100000000000076
:1001400000000000000000000000000000000000AF
:10015000000000000000000012111000000000006C
:10016000000000000000000000000000000000008F
:1001700000000102102020080810204010204080BC
:10018000020102010804020101020408102040805B
:1001900080402010080402018004020180402010E9
:1001A0000804020108040201010204081020408032
:1001B0000102040810204080050505050705080810
:1001C0000808020202020A0A0808040404040101E1
:1001D00001010101010103030303030303030407F6
:1001E00007070C0C0C0C0C0C0C0C0202020206068D
:1001F0000606060606060B0B0B0B0B0B0B0B000083
:100200002200250028002B002E00310034000201BE
:100210000000050108010B01000021002400270057
:100220002A002D0030003300010100000401070105
:100230000A010200F109930A350BD70B510C112466
:100240001FBECFEFD1E2DEBFCDBF00E00CBF12E09A
:10025000A0E0B2E0EEE2FDE100E00BBF02C00790DB
:100260000D92A037B107D9F725E0A0E7B2E001C0B1
:100270001D92A132B207E1F712E0CEE3D2E000E036
:1002800006C022970109FE010BBF0E94910EC433E4
:10029000D10780E00807A9F70E94040E0C94950E80
:1002A000AFCEFC019B016115710551F42F2F2095F4
:1002B000221F2227221F80E090E8821B91090895C7
:1002C000F7FF04C0882799278E1B9F0BB90137FFC2
:1002D00004C066277727621B730B0E943A0EAB019E
:1002E0002F2F232727FF09C0892B11F04F5F5F4F66
:1002F00088279927841B950B0895CB0108954F9269
:100300005F926F927F928F929F92AF92BF92EF9285
:10031000FF920F931F93CF93DF93CDB7DEB72B9749
:100320000FB6F894DEBF0FBECDBFB12C809147024F
:10033000B81684F5EB2CFF24E7FCF0948701055BED
:100340001D4FF801608180912C02682380910A0280
:10035000E1D6F801608180912D02682380910E0220
:10036000D9D6F801608180912E0268238091120213
:10037000D1D680912F025AD5F701EE0FFF1F4424EA
:100380004394512C4C0E5D1EE40DF51D918380832A
:10039000B394CCCF809133029091340221E0498113
:1003A0005A81481759070CF020E0EE24E3944B8162
:1003B0005C81481759070CF0E12CFF24F3944D8120
:1003C0005E81481759070CF0F12C01E04F815885E8
:1003D000481759070CF000E011E0A985BA85A81765
:1003E000B9070CF010E060914A02621B6E196F1998
:1003F000601B611B11F460914802772767FD7095BF
:1004000080E490E02B874DDF2B8580383FEF93070A
:1004100014F480E89FEF8038910514F08FE790E0A6
:100420003091510232039001112474E035952795E3
:100430007A95E1F7409152025E2D4503F0011124B7
:10044000A5E0F595E795AA95E1F72E0F3F1F40919E
:1004500054025F2D4503F00111244F2F441F442700
:10046000441F241B3109609150026003B001112424
:10047000B6E075956795BA95E1F7260F371F40915D
:1004800053024103A001112415E0559547951A9593
:10049000E1F7240F351F289FA001299F500D389F99
:1004A000500D1124CA0106E0959587950A95E1F74C
:1004B000A0914902A81B45FF0AC0CA018F71992764
:1004C000892B11F081E004C014161506DCF380E0DE
:1004D000A81B0A2F112707FD1095809126029091E5
:1004E0002702089F7001099FF00C189FF00C11243F
:1004F0008091190590911A0560912A0270912B0242
:10050000409117055091180520911B05211118C025
:1005100081E080931B0580931C05809137029091A8
:100520003802AA2797FDA095BA2F0F96A11DB11DDD
:100530008115E0E89E07A105B1050CF4ABC0A6C08B
:10054000F701E81BF90B84EF91E0E89F9001E99F28
:10055000300DF89F300D1124609FC001619F900DF8
:10056000709F900D1124840F951F820F931F20916F
:100570001C05213019F02230D9F091C0A7FF0BC023
:1005800022E020931C0597FF9CC08115F0E89F078F
:1005900009F092C098C0AA2309F4DCC023E020939C
:1005A0001C0597FF16C0811550E8950769F413C024
:1005B0001A160CF055C023E020931C0597FF09C0C4
:1005C000811530E8930739F044275527481B590B0C
:1005D00004C0AC0102C04FEF5FE7809037029090FB
:1005E0003802AA2497FCA094BA2C662757FD609580
:1005F000762F480D591D6A1D7B1D4115E0E85E07E9
:100600006105710524F04FEF5FE760E070E0509303
:100610001E0540931D0597FF0AC08115F0E89F074E
:1006200021F091958195910902C08FEF9FE7AA274C
:1006300097FDA095BA2F24013501481A590A6A0A74
:100640007B0AD301C201411420E852062FEF620653
:1006500072060CF07BC080E090E8AFEFBFEF76C091
:10066000A11178C081E080931C05809137029091A0
:100670003802AA2797FDA095BA2F0F96A11DB11D8C
:10068000811530E89307A105B10524F08FEF9FE7AE
:10069000A0E0B0E090931E0580931D0557C0AA23EB
:1006A00009F3A7FF57C022E020931C0597FF09C05C
:1006B000811540E8940739F044275527481B590B0A
:1006C00004C0AC0102C04FEF5FE78090370290900A
:1006D0003802AA2497FCA094BA2C662757FD60958F
:1006E000762F24013501441A550A660A770AB301A8
:1006F000A201411420E852062FEF6206720624F48C
:1007000040E050E86FEF7FEF50931E0540931D05CA
:1007100097FF0AC0811530E8930721F091958195E4
:10072000910902C08FEF9FE7AA2797FDA095BA2FE6
:10073000880D991DAA1DBB1D811540E89407A105D0
:10074000B10524F08FEF9FE7A0E0B0E09093200583
:1007500080931F0560911D0570911E0580913B02DD
:1007600090913C023091390220913A028617970706
:100770001CF4A32EB22E08C077FF03C071956195BB
:1007800071095B01632F722F6F3F710519F014F02F
:100790006FEF70E077FF02C060E070E080911602BA
:1007A0006AD3B5016F3F710519F014F06FEF70E077
:1007B00077FF02C060E070E080911A025CD3609124
:1007C0001F057091200580913F0290914002309169
:1007D0003D0220913E02861797071CF4A32EB22EED
:1007E00008C077FF03C07195619571095B01632FA4
:1007F000722F6F3F710519F014F06FEF70E077FF03
:1008000002C060E070E080911E0235D3B5016F3FF9
:10081000710519F014F06FEF70E077FF02C060E02F
:1008200070E08091220227D3F0921A05E092190518
:100830008091280290912902089F9001099F300D14
:10084000189F300D1124A0914502B09146020E94DC
:10085000760E409117055091180586FF13C08B0145
:100860009C012F733327012B022B032B71F4F1E032
:10087000E0E016161706180619060CF0F0E02F2F08
:100880003E2F05C020E030E002C021E030E0DC0176
:10089000CB0167E1B595A795979587956A95D1F7AF
:1008A000B901680F791F640F751F70931805609365
:1008B00017052B960FB6F894DEBF0FBECDBFDF91A4
:1008C000CF911F910F91FF90EF90BF90AF909F90AD
:1008D0008F907F906F905F904F900895CF93DF93AC
:1008E000109216051092150510921D0510921E0506
:1008F00010921F0510922005C7E1D5E086E0FE01A9
:1009000011928A95E9F761E080910A02CAD361E009
:1009100080910E02C6D361E080911202C2D3609131
:100920002F027091300280913102909132020E9428
:10093000B20D61E080911602B4D361E080911A0299
:10094000B0D361E080911E02ACD361E080912202BD
:10095000A8D3809143029091440290931A0580930A
:1009600019058091350290913602998388831092FF
:100970001B0510921C05DF91CF91089508951F92D9
:100980000F920FB60F9211240BB60F922F933F9335
:100990004F935F936F937F938F939F93AF93BF9387
:1009A000EF93FF938091740290917502892B29F047
:1009B000E0917402F09175021995FF91EF91BF914A
:1009C000AF919F918F917F916F915F914F913F91E7
:1009D0002F910F900BBE0F900FBE0F901F90189588
:1009E0001F920F920FB60F9211240BB60F922F93F6
:1009F0003F934F935F936F937F938F939F93AF93A7
:100A0000BF93EF93FF938091760290917702892BA9
:100A100029F0E0917602F09177021995FF91EF911C
:100A2000BF91AF919F918F917F916F915F914F9106
:100A30003F912F910F900BBE0F900FBE0F901F9004
:100A400018951F920F920FB60F9211240BB60F92AA
:100A50002F933F934F935F936F937F938F939F93C6
:100A6000AF93BF93EF93FF938091780290917902B7
:100A7000892B29F0E0917802F09179021995FF9184
:100A8000EF91BF91AF919F918F917F916F915F9106
:100A90004F913F912F910F900BBE0F900FBE0F9073
:100AA0001F9018951F920F920FB60F9211240BB63C
:100AB0000F922F933F934F935F936F937F938F93F7
:100AC0009F93AF93BF93EF93FF9380917A0290919E
:100AD0007B02892B29F0E0917A02F0917B02199533
:100AE000FF91EF91BF91AF919F918F917F916F9106
:100AF0005F914F913F912F910F900BBE0F900FBEC2
:100B00000F901F9018951F920F920FB60F921124FD
:100B10000BB60F922F933F934F935F936F937F93F7
:100B20008F939F93AF93BF93EF93FF938091700246
:100B300090917102892B29F0E0917002F09171027D
:100B40001995FF91EF91BF91AF919F918F917F91F7
:100B50006F915F914F913F912F910F900BBE0F902E
:100B60000FBE0F901F9018951F920F920FB60F9205
:100B700011240BB60F922F933F934F935F936F9374
:100B80007F938F939F93AF93BF93EF93FF93809146
:100B9000720290917302892B29F0E0917202F09118
:100BA00073021995FF91EF91BF91AF919F918F9132
:100BB0007F916F915F914F913F912F910F900BBE5D
:100BC0000F900FBE0F901F9018951F920F920FB6A7
:100BD0000F9211240BB60F922F933F934F935F9375
:100BE0006F937F938F939F93AF93BF93EF93FF93F5
:100BF00080917C0290917D02892B29F0E0917C020A
:100C0000F0917D021995FF91EF91BF91AF919F9166
:100C10008F917F916F915F914F913F912F910F90A5
:100C20000BBE0F900FBE0F901F9018951F920F9242
:100C30000FB60F9211240BB60F922F933F934F9341
:100C40005F936F937F938F939F93AF93BF93EF9334
:100C5000FF9380917E0290917F02892B29F0E09191
:100C60007E02F0917F021995FF91EF91BF91AF91B4
:100C70009F918F917F916F915F914F913F912F91B4
:100C80000F900BBE0F900FBE0F901F9018951F92E4
:100C90000F920FB60F9211242F933F938F939F9330
:100CA000AF93BF938091810290918202A0918302C1
:100CB000B09184023091800223E0230F2D3720F47D
:100CC0000196A11DB11D05C026E8230F0296A11DA6
:100CD000B11D209380028093810290938202A093A1
:100CE0008302B09384028091850290918602A09144
:100CF0008702B09188020196A11DB11D80938502E3
:100D000090938602A0938702B0938802BF91AF911F
:100D10009F918F913F912F910F900FBE0F901F9039
:100D200018953FB7F8948091850290918602A09122
:100D30008702B091880226B5A89B05C02F3F19F005
:100D40000196A11DB11D3FBF6627782F892F9A2FCD
:100D5000620F711D811D911D42E0660F771F881F74
:100D6000991F4A95D1F70895789484B5826084BD1F
:100D700084B5816084BD85B5826085BD85B581609F
:100D800085BDEEE6F0E0808181608083E1E8F0E0FF
:100D90001082808182608083808181608083E0E82E
:100DA000F0E0808181608083E1EBF0E0808184600D
:100DB0008083E0EBF0E0808181608083E1E9F0E016
:100DC000808182608083808181608083E0E9F0E0BF
:100DD000808181608083E1EAF0E0808182608083AD
:100DE000808181608083E0EAF0E08081816080839F
:100DF000E1E2F1E080818260808380818160808394
:100E0000E0E2F1E0808181608083EAE7F0E08081C8
:100E10008460808380818260808380818160808320
:100E20008081806880831092C1000895863308F025
:100E3000865320917B00982F9870277F922B909358
:100E40007B0087702091550290E4299F9001112426
:100E5000822B80937C0080917A00806480937A005A
:100E600080917A0086FDFCCF8091780020917900F6
:100E700090E0922B08951F93CF93DF93182FEB01EF
:100E800061E00FD1209711F460E004C0CF3FD1059D
:100E900031F461E0812FDF91CF911F913BC1E12FB0
:100EA000F0E0E45DFE4F449150E0FA013197E23109
:100EB000F10508F09AC0EE58FF4F12C784B580685C
:100EC00084BDC7BD97C084B5806284BDC8BD92C0D3
:100ED00080918000806880938000D0938900C093C7
:100EE000880088C080918000806280938000D093C9
:100EF0008B00C0938A007EC08091800088608093C0
:100F00008000D0938D00C0938C0074C08091B0009D
:100F100080688093B000C093B3006CC08091B00033
:100F200080628093B000C093B40064C08091900050
:100F3000806880939000D0939900C09398005AC025
:100F400080919000806280939000D0939B00C0932A
:100F50009A0050C080919000886080939000D09358
:100F60009D00C0939C0046C08091A0008068809343
:100F7000A0008091A0008F7B8093A000D093A90057
:100F8000C093A80037C08091A00080628093A00029
:100F9000D093AB00C093AA002DC08091A0008860C0
:100FA0008093A000D093AD00C093AC0023C080918B
:100FB0002001806880932001D0932901C0932801EB
:100FC00019C080912001806280932001D0932B0171
:100FD000C0932A010FC08091200188608093200176
:100FE000D0932D01C0932C0105C0C038D1050CF061
:100FF00050CF4ACFDF91CF911F91089590E0FC012F
:101000003197E231F10508F04BC0EC57FF4F68C64D
:10101000809180008F7703C0809180008F7D8093C6
:101020008000089580918000877FF9CF84B58F7705
:1010300002C084B58F7D84BD08958091B0008F7704
:1010400003C08091B0008F7D8093B000089580919F
:1010500090008F7707C0809190008F7D03C08091B2
:101060009000877F8093900008958091A0008F77F3
:1010700007C08091A0008F7D03C08091A000877F72
:101080008093A0000895809120018F7707C0809100
:1010900020018F7D03C080912001877F80932001F4
:1010A0000895CF93DF9390E0FC01EE58FE4F24911A
:1010B000FC01E854FE4F8491882349F190E0880FA9
:1010C000991FFC01E85EFD4FA591B49182509E4F9F
:1010D000FC01C591D4919FB7611108C0F8948C911F
:1010E000209582238C93888182230AC0623051F438
:1010F000F8948C91322F309583238C938881822BA6
:10110000888304C0F8948C91822B8C939FBFDF91CD
:10111000CF9108950F931F93CF93DF931F92CDB775
:10112000DEB7282F30E0F901E45DFE4F8491F9012C
:10113000EE58FE4F1491F901E854FE4F049100233C
:10114000C1F0882319F0698359DF6981E02FF0E04D
:10115000EE0FFF1FE250FE4FA591B4919FB7F89498
:101160008C91611103C01095812301C0812B8C9358
:101170009FBF0F90DF91CF911F910F910895FC01B8
:10118000818D228D90E0805C9F4F821B91098F732F
:1011900099270895FC01918D828D981731F0828DE9
:1011A000E80FF11D858D90E008958FEF9FEF089572
:1011B000FC01918D828D981761F0828DDF01A80F5F
:1011C000B11D5D968C91928D9F5F9F73928F90E081
:1011D00008958FEF9FEF0895FC01848DDF01A80F24
:1011E000B11DA35ABF4F2C91848D90E001968F734F
:1011F0009927848FA689B7892C93A089B1898C916E
:1012000080648C93938D848D981306C00288F38933
:10121000E02D80818F7D80830895CF93DF93EC0153
:10122000888D8823C1F0EA89FB89808185FD05C00E
:10123000A889B9898C9186FD0EC00FB607FCF5CF41
:10124000808185FFF2CFA889B9898C9185FFEDCF88
:10125000CE01C2DFE8CFDF91CF910895CF92DF9228
:10126000FF920F931F93CF93DF931F92CDB7DEB7FB
:101270006C01DC015B969C915B975C968C915C9712
:10128000981307C05096ED91FC915197808185FD90
:1012900031C0F601038D10E00F5F1F4F0F73112750
:1012A000F02EF601848DF81210C00FB607FCF9CFAE
:1012B000D6015096ED91FC915197808185FFF1CF39
:1012C000C601698389DF6981ECCF838DE80FF11D49
:1012D000E35AFF4F6083D6015B960C935B9752965F
:1012E000ED91FC91539780818062808381E05896D4
:1012F0008C930DC0D6015696ED91FC915797608363
:101300005096ED91FC91519780818064808381E0BB
:1013100090E00F90DF91CF911F910F91FF90DF90A0
:10132000CF9008951F920F920FB60F9211240BB613
:101330000F922F938F939F93EF93FF93E0919902D6
:10134000F0919A028081E0919F02F091A00282FDCB
:1013500012C090818091A2028F5F8F732091A302AF
:10136000821751F0E091A202F0E0E757FD4F958F10
:101370008093A20201C08081FF91EF919F918F9194
:101380002F910F900BBE0F900FBE0F901F901895CE
:101390001F920F920FB60F9211240BB60F922F933C
:1013A0003F934F935F936F937F938F939F93AF93ED
:1013B000BF93EF93FF9389E892E00EDFFF91EF91E7
:1013C000BF91AF919F918F917F916F915F914F915D
:1013D0003F912F910F900BBE0F900FBE0F901F905B
:1013E000189510928C0210928B0288EE93E0A0E088
:1013F000B0E080938D0290938E02A0938F02B09301
:1014000090028DE592E090938A028093890285ECA8
:1014100090E0909396028093950284EC90E09093F4
:1014200098028093970280EC90E090939A028093C8
:10143000990281EC90E090939C0280939B0282EC55
:1014400090E090939E0280939D0286EC90E09093B2
:10145000A00280939F021092A2021092A302109207
:10146000A4021092A50208951F920F920FB60F9238
:1014700011240BB60F922F938F939F93EF93FF93AB
:10148000E0913603F09137038081E0913C03F091C5
:101490003D0382FD12C0908180913F038F5F8F7367
:1014A00020914003821751F0E0913F03F0E0EA5DA4
:1014B000FC4F958F80933F0301C08081FF91EF9196
:1014C0009F918F912F910F900BBE0F900FBE0F9099
:1014D0001F9018951F920F920FB60F9211240BB602
:1014E0000F922F933F934F935F936F937F938F93BD
:1014F0009F93AF93BF93EF93FF9386E293E06CDEED
:10150000FF91EF91BF91AF919F918F917F916F91DB
:101510005F914F913F912F910F900BBE0F900FBE97
:101520000F901F901895109229031092280388EEAF
:1015300093E0A0E0B0E080932A0390932B03A09364
:101540002C03B0932D038DE592E0909327038093B5
:1015500026038DEC90E090933303809332038CEC60
:1015600090E0909335038093340388EC90E090935F
:1015700037038093360389EC90E09093390380938E
:1015800038038AEC90E090933B0380933A038EEC0F
:1015900090E090933D0380933C0310923F031092A0
:1015A0004003109241031092420308951F920F923C
:1015B0000FB60F9211240BB60F922F938F939F9318
:1015C000EF93FF93E091D303F091D4038081E091F6
:1015D000D903F091DA0382FD12C090818091DC037F
:1015E0008F5F8F732091DD03821751F0E091DC0350
:1015F000F0E0ED53FC4F958F8093DC0301C08081B8
:10160000FF91EF919F918F912F910F900BBE0F90B3
:101610000FBE0F901F9018951F920F920FB60F924A
:1016200011240BB60F922F933F934F935F936F93B9
:101630007F938F939F93AF93BF93EF93FF9383EC2D
:1016400093E0CADDFF91EF91BF91AF919F918F9190
:101650007F916F915F914F913F912F910F900BBEB2
:101660000F900FBE0F901F9018951092C603109206
:10167000C50388EE93E0A0E0B0E08093C7039093A9
:10168000C803A093C903B093CA038DE592E0909379
:10169000C4038093C30385ED90E09093D0038093BF
:1016A000CF0384ED90E09093D2038093D10380ED3B
:1016B00090E09093D4038093D30381ED90E09093D6
:1016C000D6038093D50382ED90E09093D803809366
:1016D000D70386ED90E09093DA038093D9031092BC
:1016E000DC031092DD031092DE031092DF030895F5
:1016F0001F920F920FB60F9211240BB60F922F93D9
:101700008F939F93EF93FF93E0917004F091710496
:101710008081E0917604F091770482FD12C090817F
:10172000809179048F5F8F7320917A04821751F032
:10173000E0917904F0E0E05AFB4F958F80937904B3
:1017400001C08081FF91EF919F918F912F910F9018
:101750000BBE0F900FBE0F901F9018951F920F9207
:101760000FB60F9211240BB60F922F933F934F9306
:101770005F936F937F938F939F93AF93BF93EF93F9
:10178000FF9380E694E028DDFF91EF91BF91AF9148
:101790009F918F917F916F915F914F913F912F9189
:1017A0000F900BBE0F900FBE0F901F9018951092C8
:1017B00063041092620488EE93E0A0E0B0E08093AE
:1017C000640490936504A0936604B09367048DE568
:1017D00092E0909361048093600485E391E090939C
:1017E0006D0480936C0484E391E090936F04809384
:1017F0006E0480E391E0909371048093700481E320
:1018000091E0909373048093720482E391E090934B
:1018100075048093740486E391E090937704809339
:1018200076041092790410927A0410927B0410923C
:101830007C040895AF92BF92CF92DF92EF92FF9215
:101840000F931F93CF93DF936C017B01C0E0D0E037
:1018500000E010E0F601EC0FFD1F4AE050E062816D
:10186000C701D6D05C016EE2C70168D08A0D9B1D0E
:10187000080F191F2196C330D10561F74AE050E0E7
:10188000F6016581C701C4D0800F911FDF91CF9110
:101890001F910F91FF90EF90DF90CF90BF90AF908E
:1018A00008958DE692E09093FE048093FD041092DB
:1018B000FF04109200051092010510920205089590
:1018C000CF92DF92EF92FF920F931F93CF93DF930C
:1018D0006C017A01EB01E60EF71E00E010E0CE1578
:1018E000DF0561F06991D601ED91FC910190F081E5
:1018F000E02DC6011995080F191FF1CFC801DF911E
:10190000CF911F910F91FF90EF90DF90CF900895AE
:101910006115710581F0DB010D900020E9F7AD0143
:1019200041505109461B570BDC01ED91FC9102809F
:10193000F381E02D199480E090E00895DC01ED91B1
:10194000FC910190F081E02D19948F929F92AF92BB
:10195000BF92CF92DF92EF92FF920F931F93CF939C
:10196000DF93CDB7DEB7A1970FB6F894DEBF0FBEF9
:10197000CDBF7C01C42EE52FCB01D22E19A221E0D0
:101980002D1510F02AE0D22E8E010F5D1F4F8D2CE9
:10199000912CA12CB12C6C2D7E2FA50194017ED110
:1019A0008C2DD29E80191124015011098A3014F413
:1019B000805D01C0895CF8018083211531054105F6
:1019C000510521F0C22EE32FCA01E5CFB801C701AE
:1019D0009FDFA1960FB6F894DEBF0FBECDBFDF919B
:1019E000CF911F910F91FF90EF90DF90CF90BF901C
:1019F000AF909F908F9008952115310541F4DC013F
:101A0000ED91FC910190F081E02D642F19949DCF10
:101A10009A01462F50E060E070E0EECF8230A9F0EE
:101A200028F4882349F0813051F00895843009F179
:101A3000E8F0853009F1089510926E0008958091C4
:101A40006F008D7F80936F000895809170008D7F6F
:101A50008093700081E08093B0008091B100887F16
:101A600084608093B1001092B300089510927100C9
:101A70000895109272000895109273000895CF9304
:101A8000C82F809156028C1307C0E2E3F2E08491E4
:101A90009FEF9093560201C08FEFC0DF60E08C2F64
:101AA000CF9138CB1F920F920FB60F9211240BB625
:101AB0000F922F933F934F935F936F937F938F93E7
:101AC0009F93AF93BF93EF93FF93809106059091FF
:101AD0000705A0910805B0910905892B8A2B8B2B4E
:101AE00051F190910305E0910405F0910505808185
:101AF000892780838091060590910705A0910805AC
:101B0000B0910905181619061A061B06BCF4809137
:101B1000060590910705A0910805B0910905019768
:101B2000A109B1098093060590930705A0930805C4
:101B3000B093090503C080915602A1DFFF91EF9198
:101B4000BF91AF919F918F917F916F915F914F91D5
:101B50003F912F910F900BBE0F900FBE0F901F90D3
:101B600018950895862F60E09CCA0895CF92DF9261
:101B7000EF92FF920F931F93D4D860930A0570934E
:101B80000B0580930C0590930D0500910E051091A7
:101B90000F0520911005309111056B017C01C01AD1
:101BA000D10AE20AF30A40EDC41647E0D406E10484
:101BB000F10448F060930E0570930F0580931005B3
:101BC0009093110508D081E01F910F91FF90EF9045
:101BD000DF90CF9008952091120581E0820F8093CD
:101BE0001205222349F081E090E090931405809340
:101BF00013052093120508950E947F01809112051C
:101C000081508093120508950F931F93CF93DF9314
:101C10001F92CDB7DEB781E08983A6D8A2DF0091FD
:101C2000570210915802F801118210820E946E042E
:101C30009CDF21E0F80180819181892B09F020E06F
:101C4000298378948981882351F090DF21E0F8017D
:101C500080819181892B09F020E02983F3CF0E94B4
:101C6000BE04F89480E090E00F90DF91CF911F9137
:101C70000F910895AA1BBB1B51E107C0AA1FBB1FF0
:101C8000A617B70710F0A61BB70B881F991F5A9508
:101C9000A9F780959095BC01CD010895A1E21A2E77
:101CA000AA1BBB1BFD010DC0AA1FBB1FEE1FFF1F00
:101CB000A217B307E407F50720F0A21BB30BE40B50
:101CC000F50B661F771F881F991F1A9469F7609597
:101CD0007095809590959B01AC01BD01CF01089551
:101CE000EE0FFF1F0590F491E02D199405D03323DA
:101CF00012F48A1B9B0B10C0A29FB001B39FC001BE
:101D0000A39F700D811D1124911DB29F700D811D27
:101D10001124911D0895F0DFB7FF0895821B930BE6
:0E1D200008950790F691E02D1994F894FFCFE6
:101D2E0000002105800001000000070000000800EF
:101D3E0000000B00000006000000050000000A0075
:101D4E0000000900000000000F0023000102040241
:101D5E0000000058020000640000000000000000B7
:101D6E000001000000894105010005000102030485
:101D7E00804040800001FF1505000000002E096024
:101D8E000CBF08D808CA080D09000000001A0C0084
:00000001FF
