:100000000CC100006CC100009BC10000CAC100000F
:10001000F9C1000028C2000057C2000086C20000DB
:10002000B5C200002BC1000029C1000027C100009B
:1000300025C100000C941A0921C100001FC1000055
:100040001DC100001BC1000019C1000017C1000044
:1000500015C1000013C1000011C10000C8C200009A
:100060000DC1000027C500005BC5000007C10000EE
:1000700005C1000003C1000001C10000FFC0000075
:10008000FDC00000FBC00000F9C00000F7C0000088
:10009000B3C50000E7C50000F1C00000EFC00000DC
:1000A000EDC00000EBC00000E9C00000E7C00000A8
:1000B000E5C00000E3C00000E1C00000DFC00000B8
:1000C000DDC00000DBC00000D9C0000037C6000062
:1000D0006BC60000D3C00000D3C6000007C70000F5
:1000E000CDC00000DE03E103D003D403DA0318041B
:1000F000E503E903EF03F303F703FD03010405043C
:1001000018040B040F04130400000A0B02090C0D61
:100110000E080703040100000000000000000000BA
:1001200000000000000000000000000000000000CF
:10013000000000001211100000000000000000008C
:1001400000000000000000000000000000000102AC
:1001500010202008081020401020408002010201D9
:100160000804020101020408102040808040201091
:1001700008040201800402018040201008040201EA
:100180000804020101020408102040800102040852
:10019000102040800505050507050808080802022B
:1001A00002020A0A08080404040401010101010111
:1001B00001010303030303030303040707070C0CF4
:1001C0000C0C0C0C0C0C02020202060606060606BB
:1001D00006060B0B0B0B0B0B0B0B00002200250074
:1001E00028002B002E003100340002010000050120
:1001F00008010B0100002100240027002A002D0027
:100200003000330001010000040107010A0102006F
:10021000B9055B06FD069F07190811241FBECFEF25
:10022000D1E2DEBFCDBF00E00CBF12E0A0E0B2E043
:10023000EAE5F5E100E00BBF02C007900D92A432A1
:10024000B107D9F724E0A4E2B2E001C01D92AF3CAF
:10025000B207E1F712E0CAE1D2E000E006C022975F
:100260000109FE010BBF0E94A70AC031D10780E03F
:100270000807A9F70E94CA090C94AB0AC1CECF9215
:10028000DF92EF92FF92C090CB04D090CC04E0902C
:10029000CD04F090CE0420E030E040E853E4C70104
:1002A000B6010E94FE0987FF0EC020E030E0A901E0
:1002B000C701B6010E947B0A87FD07C0C701B601CE
:1002C0000E94020A03C06FEF01C060E089E0FF9066
:1002D000EF90DF90CF90E6C261E089E0AAC21F9262
:1002E0000F920FB60F9211240BB60F922F933F93DC
:1002F0004F935F936F937F938F939F93AF93BF932E
:10030000EF93FF938091280290912902892B29F085
:10031000E0912802F09129021995FF91EF91BF9188
:10032000AF919F918F917F916F915F914F913F918D
:100330002F910F900BBE0F900FBE0F901F9018952E
:100340001F920F920FB60F9211240BB60F922F939C
:100350003F934F935F936F937F938F939F93AF934D
:10036000BF93EF93FF9380912A0290912B02892BE8
:1003700029F0E0912A02F0912B021995FF91EF915B
:10038000BF91AF919F918F917F916F915F914F91AD
:100390003F912F910F900BBE0F900FBE0F901F90AB
:1003A00018951F920F920FB60F9211240BB60F9251
:1003B0002F933F934F935F936F937F938F939F936D
:1003C000AF93BF93EF93FF9380912C0290912D02F6
:1003D000892B29F0E0912C02F0912D021995FF91C3
:1003E000EF91BF91AF919F918F917F916F915F91AD
:1003F0004F913F912F910F900BBE0F900FBE0F901A
:100400001F9018951F920F920FB60F9211240BB6E2
:100410000F922F933F934F935F936F937F938F939D
:100420009F93AF93BF93EF93FF9380912E02909190
:100430002F02892B29F0E0912E02F0912F021995BD
:10044000FF91EF91BF91AF919F918F917F916F91AC
:100450005F914F913F912F910F900BBE0F900FBE68
:100460000F901F9018951F920F920FB60F921124A4
:100470000BB60F922F933F934F935F936F937F939E
:100480008F939F93AF93BF93EF93FF938091240239
:1004900090912502892B29F0E0912402F091250208
:1004A0001995FF91EF91BF91AF919F918F917F919E
:1004B0006F915F914F913F912F910F900BBE0F90D5
:1004C0000FBE0F901F9018951F920F920FB60F92AC
:1004D00011240BB60F922F933F934F935F936F931B
:1004E0007F938F939F93AF93BF93EF93FF938091ED
:1004F000260290912702892B29F0E0912602F091A3
:1005000027021995FF91EF91BF91AF919F918F9124
:100510007F916F915F914F913F912F910F900BBE03
:100520000F900FBE0F901F9018951F920F920FB64D
:100530000F9211240BB60F922F933F934F935F931B
:100540006F937F938F939F93AF93BF93EF93FF939B
:100550008091300290913102892B29F0E091300294
:10056000F09131021995FF91EF91BF91AF919F9159
:100570008F917F916F915F914F913F912F910F904C
:100580000BBE0F900FBE0F901F9018951F920F92E9
:100590000FB60F9211240BB60F922F933F934F93E8
:1005A0005F936F937F938F939F93AF93BF93EF93DB
:1005B000FF938091320290913302892B29F0E091D0
:1005C0003202F09133021995FF91EF91BF91AF91F3
:1005D0009F918F917F916F915F914F913F912F915B
:1005E0000F900BBE0F900FBE0F901F9018951F928B
:1005F0000F920FB60F9211242F933F938F939F93D7
:10060000AF93BF938091350290913602A09137024B
:10061000B09138023091340223E0230F2D3720F4BB
:100620000196A11DB11D05C026E8230F0296A11D4C
:10063000B11D209334028093350290933602A0932B
:100640003702B09338028091390290913A02A0911A
:100650003B02B0913C020196A11DB11D809339026D
:1006600090933A02A0933B02B0933C02BF91AF91AA
:100670009F918F913F912F910F900FBE0F901F90E0
:1006800018953FB7F8948091390290913A02A09161
:100690003B02B0913C0226B5A89B05C02F3F19F044
:1006A0000196A11DB11D3FBF6627782F892F9A2F74
:1006B000620F711D811D911D42E0660F771F881F1B
:1006C000991F4A95D1F70895789484B5826084BDC6
:1006D00084B5816084BD85B5826085BD85B5816046
:1006E00085BDEEE6F0E0808181608083E1E8F0E0A6
:1006F0001082808182608083808181608083E0E8D5
:10070000F0E0808181608083E1EBF0E080818460B3
:100710008083E0EBF0E0808181608083E1E9F0E0BC
:10072000808182608083808181608083E0E9F0E065
:10073000808181608083E1EAF0E080818260808353
:10074000808181608083E0EAF0E080818160808345
:10075000E1E2F1E08081826080838081816080833A
:10076000E0E2F1E0808181608083EAE7F0E080816F
:1007700084608083808182608083808181608083C7
:100780008081806880831092C100089590E0FC0110
:100790003197E231F10508F04BC0EE58FF4FD1C65A
:1007A000809180008F7703C0809180008F7D80933F
:1007B0008000089580918000877FF9CF84B58F777E
:1007C00002C084B58F7D84BD08958091B0008F777D
:1007D00003C08091B0008F7D8093B0000895809118
:1007E00090008F7707C0809190008F7D03C080912B
:1007F0009000877F8093900008958091A0008F776C
:1008000007C08091A0008F7D03C08091A000877FEA
:100810008093A0000895809120018F7707C0809178
:1008200020018F7D03C080912001877F809320016C
:100830000895CF93DF9390E0FC01E25BFE4F24919B
:10084000FC01EC56FE4F8491882349F190E0880F1B
:10085000991FFC01EC50FE4FA591B49186529E4F1A
:10086000FC01C591D4919FB7611108C0F8948C9197
:10087000209582238C93888182230AC0623051F4B0
:10088000F8948C91322F309583238C938881822B1E
:10089000888304C0F8948C91822B8C939FBFDF9146
:1008A000CF9108950F931F93CF93DF931F92CDB7EE
:1008B000DEB7282F30E0F901E85FFE4F8491F9019F
:1008C000E25BFE4F1491F901EC56FE4F04910023B8
:1008D000C1F0882319F0698359DF6981E02FF0E0C6
:1008E000EE0FFF1FE652FE4FA591B4919FB7F8940B
:1008F0008C91611103C01095812301C0812B8C93D1
:100900009FBF0F90DF91CF911F910F910895FC0130
:10091000818D228D90E0805C9F4F821B91098F73A7
:1009200099270895FC01918D828D981731F0828D61
:10093000E80FF11D858D90E008958FEF9FEF0895EA
:10094000FC01918D828D981761F0828DDF01A80FD7
:10095000B11D5D968C91928D9F5F9F73928F90E0F9
:1009600008958FEF9FEF0895FC01848DDF01A80F9C
:10097000B11DA35ABF4F2C91848D90E001968F73C7
:100980009927848FA689B7892C93A089B1898C91E6
:1009900080648C93938D848D981306C00288F389AC
:1009A000E02D80818F7D80830895CF93DF93EC01CC
:1009B000888D8823C1F0EA89FB89808185FD05C087
:1009C000A889B9898C9186FD0EC00FB607FCF5CFBA
:1009D000808185FFF2CFA889B9898C9185FFEDCF01
:1009E000CE01C2DFE8CFDF91CF910895CF92DF92A1
:1009F000FF920F931F93CF93DF931F92CDB7DEB774
:100A00006C01DC015B969C915B975C968C915C978A
:100A1000981307C05096ED91FC915197808185FD08
:100A200031C0F601038D10E00F5F1F4F0F731127C8
:100A3000F02EF601848DF81210C00FB607FCF9CF26
:100A4000D6015096ED91FC915197808185FFF1CFB1
:100A5000C601698389DF6981ECCF838DE80FF11DC1
:100A6000E35AFF4F6083D6015B960C935B975296D7
:100A7000ED91FC91539780818062808381E058964C
:100A80008C930DC0D6015696ED91FC9157976083DB
:100A90005096ED91FC91519780818064808381E034
:100AA00090E00F90DF91CF911F910F91FF90DF9019
:100AB000CF9008951F920F920FB60F9211240BB68C
:100AC0000F922F938F939F93EF93FF93E0914D029B
:100AD000F0914E028081E0915302F091540282FD28
:100AE00012C09081809156028F5F8F7320915702C0
:100AF000821751F0E0915602F0E0E35CFD4F958FD4
:100B00008093560201C08081FF91EF919F918F9158
:100B10002F910F900BBE0F900FBE0F901F90189546
:100B20001F920F920FB60F9211240BB60F922F93B4
:100B30003F934F935F936F937F938F939F93AF9365
:100B4000BF93EF93FF938DE392E00EDFFF91EF9160
:100B5000BF91AF919F918F917F916F915F914F91D5
:100B60003F912F910F900BBE0F900FBE0F901F90D3
:100B700018951092400210923F0288EE93E0A0E098
:100B8000B0E08093410290934202A0934302B0935D
:100B9000440281E192E090933E0280933D0285EC15
:100BA00090E090934A028093490284EC90E0909305
:100BB0004C0280934B0280EC90E090934E02809325
:100BC0004D0281EC90E09093500280934F0282ECB2
:100BD00090E0909352028093510286EC90E09093C3
:100BE00054028093530210925602109257021092B0
:100BF00058021092590208951F920F920FB60F9249
:100C000011240BB60F922F938F939F93EF93FF9323
:100C1000E091EA02F091EB028081E091F002F09124
:100C2000F10282FD12C090818091F3028F5F8F7379
:100C30002091F402821751F0E091F302F0E0E652C5
:100C4000FD4F958F8093F30201C08081FF91EF915A
:100C50009F918F912F910F900BBE0F900FBE0F9011
:100C60001F9018951F920F920FB60F9211240BB67A
:100C70000F922F933F934F935F936F937F938F9335
:100C80009F93AF93BF93EF93FF938AED92E06CDE57
:100C9000FF91EF91BF91AF919F918F917F916F9154
:100CA0005F914F913F912F910F900BBE0F900FBE10
:100CB0000F901F9018951092DD021092DC0288EEC2
:100CC00093E0A0E0B0E08093DE029093DF02A09377
:100CD000E002B093E10281E192E09093DB02809325
:100CE000DA028DEC90E09093E7028093E6028CECC0
:100CF00090E09093E9028093E80288EC90E0909372
:100D0000EB028093EA0289EC90E09093ED028093ED
:100D1000EC028AEC90E09093EF028093EE028EEC6E
:100D200090E09093F1028093F0021092F3021092FF
:100D3000F4021092F5021092F60208951F920F929B
:100D40000FB60F9211240BB60F922F938F939F9390
:100D5000EF93FF93E0918703F09188038081E09106
:100D60008D03F0918E0382FD12C0908180919003DB
:100D70008F5F8F7320919103821751F0E091900360
:100D8000F0E0E958FC4F958F8093900301C080817B
:100D9000FF91EF919F918F912F910F900BBE0F902C
:100DA0000FBE0F901F9018951F920F920FB60F92C3
:100DB00011240BB60F922F933F934F935F936F9332
:100DC0007F938F939F93AF93BF93EF93FF9387E7A7
:100DD00093E0CADDFF91EF91BF91AF919F918F9109
:100DE0007F916F915F914F913F912F910F900BBE2B
:100DF0000F900FBE0F901F90189510927A031092CB
:100E0000790388EE93E0A0E0B0E080937B039093B9
:100E10007C03A0937D03B0937E0381E192E09093E5
:100E200078038093770385ED90E09093840380931B
:100E3000830384ED90E0909386038093850380ED97
:100E400090E0909388038093870381ED90E09093E6
:100E50008A038093890382ED90E090938C038093C2
:100E60008B0386ED90E090938E0380938D03109218
:100E7000900310929103109292031092930308959D
:100E80001F920F920FB60F9211240BB60F922F9351
:100E90008F939F93EF93FF93E0912404F0912504A7
:100EA0008081E0912A04F0912B0482FD12C0908190
:100EB00080912D048F5F8F7320912E04821751F043
:100EC000E0912D04F0E0EC5EFB4F958F80932D04B4
:100ED00001C08081FF91EF919F918F912F910F9091
:100EE0000BBE0F900FBE0F901F9018951F920F9280
:100EF0000FB60F9211240BB60F922F933F934F937F
:100F00005F936F937F938F939F93AF93BF93EF9371
:100F1000FF9384E194E028DDFF91EF91BF91AF91C1
:100F20009F918F917F916F915F914F913F912F9101
:100F30000F900BBE0F900FBE0F901F901895109240
:100F400017041092160488EE93E0A0E0B0E08093BE
:100F5000180490931904A0931A04B0931B0481E120
:100F600092E0909315048093140485E391E09093AC
:100F700021048093200484E391E0909323048093E0
:100F8000220480E391E0909325048093240481E37C
:100F900091E0909327048093260482E391E090935C
:100FA00029048093280486E391E090932B04809396
:100FB0002A0410922D0410922E0410922F041092E5
:100FC00030040895AF92BF92CF92DF92EF92FF92DA
:100FD0000F931F93CF93DF936C017B01C0E0D0E0B0
:100FE00000E010E0F601EC0FFD1F4AE050E06281E6
:100FF000C701D6D05C016EE2C70168D08A0D9B1D87
:10100000080F191F2196C330D10561F74AE050E05F
:10101000F6016581C701C4D0800F911FDF91CF9188
:101020001F910F91FF90EF90DF90CF90BF90AF9006
:10103000089581E292E09093B2048093B1041092FB
:10104000B3041092B4041092B5041092B60408953B
:10105000CF92DF92EF92FF920F931F93CF93DF9384
:101060006C017A01EB01E60EF71E00E010E0CE15F0
:10107000DF0561F06991D601ED91FC910190F0815D
:10108000E02DC6011995080F191FF1CFC801DF9196
:10109000CF911F910F91FF90EF90DF90CF90089527
:1010A0006115710581F0DB010D900020E9F7AD01BC
:1010B00041505109461B570BDC01ED91FC91028018
:1010C000F381E02D199480E090E00895DC01ED912A
:1010D000FC910190F081E02D19948F929F92AF9234
:1010E000BF92CF92DF92EF92FF920F931F93CF9315
:1010F000DF93CDB7DEB7A1970FB6F894DEBF0FBE72
:10110000CDBF7C01C42EE52FCB01D22E19A221E048
:101110002D1510F02AE0D22E8E010F5D1F4F8D2C61
:10112000912CA12CB12C6C2D7E2FA5019401E7D11F
:101130008C2DD29E80191124015011098A3014F48B
:10114000805D01C0895CF80180832115310541056E
:10115000510521F0C22EE32FCA01E5CFB801C70126
:101160009FDFA1960FB6F894DEBF0FBECDBFDF9113
:10117000CF911F910F91FF90EF90DF90CF90BF9094
:10118000AF909F908F9008952115310541F4DC01B7
:10119000ED91FC910190F081E02D642F19949DCF89
:1011A0009A01462F50E060E070E0EECF8230A9F067
:1011B00028F4882349F0813051F00895843009F1F2
:1011C000E8F0853009F1089510926E00089580913D
:1011D0006F008D7F80936F000895809170008D7FE8
:1011E0008093700081E08093B0008091B100887F8F
:1011F00084608093B1001092B30008951092710042
:101200000895109272000895109273000895CF937C
:10121000C82F80910A028C1307C0EEE0F2E084919F
:101220009FEF90930A0201C08FEFC0DF60E08C2F28
:10123000CF9138CB1F920F920FB60F9211240BB69D
:101240000F922F933F934F935F936F937F938F935F
:101250009F93AF93BF93EF93FF938091BA049091C4
:10126000BB04A091BC04B091BD04892B8A2B8B2BAD
:1012700051F19091B704E091B804F091B9048081E4
:10128000892780838091BA049091BB04A091BC040B
:10129000B091BD04181619061A061B06BCF48091FD
:1012A000BA049091BB04A091BC04B091BD04019715
:1012B000A109B1098093BA049093BB04A093BC0424
:1012C000B093BD0403C080910A02A1DFFF91EF91AA
:1012D000BF91AF919F918F917F916F915F914F914E
:1012E0003F912F910F900BBE0F900FBE0F901F904C
:1012F000189508950895CF92DF92EF92FF920F9381
:101300001F93BFD96093BE047093BF048093C00441
:101310009093C1040091C2041091C3042091C404AD
:101320003091C5046B017C01C01AD10AE20AF30AAC
:1013300040EAC41646E8D40641E0E406F10448F069
:101340006093C2047093C3048093C4049093C50453
:1013500008D081E01F910F91FF90EF90DF90CF9028
:1013600008952091C60481E0820F8093C604222351
:1013700049F081E090E09093C8048093C7042093E3
:10138000C60408950E943F018091C6048150809355
:10139000C60408950F931F93CF93DF931F92CDB789
:1013A000DEB781E0898390D9A4DF00910B02109110
:1013B0000C02F801118210820E946C019BDF21E077
:1013C000F80180819181892B09F020E029837894AC
:1013D0008981882351F08FDF21E0F801808191819C
:1013E000892B09F020E02983F3CFF89480E090E086
:1013F0000F90DF91CF911F910F9108952FD008F496
:1014000081E0089557D088F09F5790F0B92F992721
:10141000B751A0F0D1F0660F771F881F991F1AF0FF
:10142000BA95C9F712C0B13081F05ED0B1E008952D
:101430005BC0672F782F8827B85F39F0B93FCCF3AE
:10144000869577956795B395D9F73EF490958095F5
:10145000709561957F4F8F4F9F4F0895990F0008AA
:10146000550FAA0BE0E8FEEF16161706E807F90776
:10147000C0F012161306E407F50798F0621B730B11
:10148000840B950B39F40A2661F0232B242B252B92
:1014900021F408950A2609F4A140A6958FEF811D35
:1014A000811D089557FD9058440F551F59F05F3F17
:1014B00071F04795880F97FB991F61F09F3F79F076
:1014C00087950895121613061406551FF2CF4695F8
:1014D000F1DF08C0161617061806991FF1CF86957A
:1014E0007105610508940895E894BB27662777275E
:1014F000CB0197F90895B2DF08F48FEF0895A1E2C8
:101500001A2EAA1BBB1BFD010DC0AA1FBB1FEE1F7D
:10151000FF1FA217B307E407F50720F0A21BB30BC8
:10152000E40BF50B661F771F881F991F1A9469F744
:1015300060957095809590959B01AC01BD01CF01A0
:101540000895EE0FFF1F0590F491E02D1994079078
:0A155000F691E02D1994F894FFCFF6
:10155A000000CF04800001000000FFC90400000061
:10156A0000F60428088704A0049204D504000000A9
:04157A0000E2070084
:00000001FF
