:1000000013C10000EBC100001AC2000049C2000089
:1000100078C20000A7C20000D6C2000005C30000DD
:1000200034C3000032C1000030C100002EC1000006
:100030002CC100000C94ED0928C1000026C100006D
:1000400024C1000022C1000020C100001EC1000028
:100050001CC100001AC1000018C1000047C3000005
:1000600014C10000D8C500000CC600000EC100007D
:100070000CC100000AC1000008C1000006C1000058
:1000800004C1000002C1000000C10000FEC0000069
:1000900064C6000098C60000F8C00000F6C000006A
:1000A000F4C00000F2C00000F0C00000EEC000008C
:1000B000ECC00000EAC00000E8C00000E6C000009C
:1000C000E4C00000E2C000000C94E20AE8C60000B0
:1000D0001CC70000DAC0000084C70000B8C70000D9
:1000E000D4C000008F049204810485048B04C904E9
:1000F00096049A04A004A404A804AE04B204B604AE
:10010000C904BC04C004C40400000A0B02090C0D9D
:100110000E080703040100000000000000000000BA
:1001200000000000000000000000000000000000CF
:10013000000000001211100000000000000000008C
:1001400000000000000000000000000000000102AC
:1001500010202008081020401020408002010201D9
:100160000804020101020408102040808040201091
:1001700008040201800402018040201008040201EA
:100180000804020101020408102040800102040852
:10019000102040800505050507050808080802022B
:1001A00002020A0A08080404040401010101010111
:1001B00001010303030303030303040707070C0CF4
:1001C0000C0C0C0C0C0C02020202060606060606BB
:1001D00006060B0B0B0B0B0B0B0B00002200250074
:1001E00028002B002E003100340002010000050120
:1001F00008010B0100002100240027002A002D0027
:100200003000330001010000040107010A0102006F
:100210006A060C07AE075008EB088A0ACC0CD80C0B
:10022000300D6E11F512BC1411241FBECFEFD1E2B8
:10023000DEBFCDBF00E00CBF12E0A0E0B2E0E0E521
:10024000F8E300E00BBF02C007900D92A638B1079B
:10025000D9F725E0A6E8B2E001C01D92AF38B20799
:10026000E1F712E0C8E2D2E000E006C022970109FF
:10027000FE010BBF0E94221CC031D10780E008079D
:10028000A9F70E94401B0C94261CBACECF92DF9295
:10029000EF92FF920F931F93CF93DF9300D01F92A3
:1002A000CDB7DEB720910E0230910F0240911002BF
:1002B000509111028E010F5F1F4F65E875E080912C
:1002C00012020E949F0A8091850580938605909175
:1002D0008D05911104C081E080938D0506C0909139
:1002E0008E05913091F48630E8F082E080938E059F
:1002F00080E090E0A0E8BFE38093810590938205C1
:10030000A0938305B09384050DC0863058F481E036
:1003100080938E05109281051092820510928305BC
:1003200010928405C0908105D0908205E0908305ED
:10033000F090840520E030E040E853E4C701B601C6
:100340000E94791B87FF0EC020E030E0A901C701A1
:10035000B6010E94F61B87FD07C0C701B6010E94C7
:100360007D1B03C06FEF01C060E080910A024BD398
:100370000F900F900F900F90DF91CF911F910F91E1
:10038000FF90EF90DF90CF90089510928805109223
:10039000870586E0E1E8F5E0DF01982F1D929A9548
:1003A000E9F7E9E8F5E0DF011D928A95E9F7409168
:1003B0000E0250910F026091100270911102809113
:1003C00012020E944D0A61E080910A02E3D210926B
:1003D0008D0510928E050895089508951F920F922D
:1003E0000FB60F9211240BB60F922F933F934F939A
:1003F0005F936F937F938F939F93AF93BF93EF938D
:10040000FF9380918A0290918B02892B29F0E091D1
:100410008A02F0918B021995FF91EF91BF91AF91F4
:100420009F918F917F916F915F914F913F912F910C
:100430000F900BBE0F900FBE0F901F9018951F923C
:100440000F920FB60F9211240BB60F922F933F937A
:100450004F935F936F937F938F939F93AF93BF93CC
:10046000EF93FF9380918C0290918D02892B29F05C
:10047000E0918C02F0918D021995FF91EF91BF915F
:10048000AF919F918F917F916F915F914F913F912C
:100490002F910F900BBE0F900FBE0F901F901895CD
:1004A0001F920F920FB60F9211240BB60F922F933B
:1004B0003F934F935F936F937F938F939F93AF93EC
:1004C000BF93EF93FF9380918E0290918F02892BBF
:1004D00029F0E0918E02F0918F021995FF91EF9132
:1004E000BF91AF919F918F917F916F915F914F914C
:1004F0003F912F910F900BBE0F900FBE0F901F904A
:1005000018951F920F920FB60F9211240BB60F92EF
:100510002F933F934F935F936F937F938F939F930B
:10052000AF93BF93EF93FF938091900290919102CC
:10053000892B29F0E0919002F09191021995FF9199
:10054000EF91BF91AF919F918F917F916F915F914B
:100550004F913F912F910F900BBE0F900FBE0F90B8
:100560001F9018951F920F920FB60F9211240BB681
:100570000F922F933F934F935F936F937F938F933C
:100580009F93AF93BF93EF93FF93809186029091D7
:100590008702892B29F0E0918602F0918702199554
:1005A000FF91EF91BF91AF919F918F917F916F914B
:1005B0005F914F913F912F910F900BBE0F900FBE07
:1005C0000F901F9018951F920F920FB60F92112443
:1005D0000BB60F922F933F934F935F936F937F933D
:1005E0008F939F93AF93BF93EF93FF938091880274
:1005F00090918902892B29F0E0918802F09189027B
:100600001995FF91EF91BF91AF919F918F917F913C
:100610006F915F914F913F912F910F900BBE0F9073
:100620000FBE0F901F9018951F920F920FB60F924A
:1006300011240BB60F922F933F934F935F936F93B9
:100640007F938F939F93AF93BF93EF93FF9380918B
:10065000920290919302892B29F0E0919202F091FD
:1006600093021995FF91EF91BF91AF919F918F9157
:100670007F916F915F914F913F912F910F900BBEA2
:100680000F900FBE0F901F9018951F920F920FB6EC
:100690000F9211240BB60F922F933F934F935F93BA
:1006A0006F937F938F939F93AF93BF93EF93FF933A
:1006B0008091940290919502892B29F0E091940207
:1006C000F09195021995FF91EF91BF91AF919F9194
:1006D0008F917F916F915F914F913F912F910F90EB
:1006E0000BBE0F900FBE0F901F9018951F920F9288
:1006F0000FB60F9211242F933F938F939F93AF9335
:10070000BF938091970290919802A0919902B09125
:100710009A023091960223E0230F2D3720F40196A0
:10072000A11DB11D05C026E8230F0296A11DB11D14
:10073000209396028093970290939802A093990237
:10074000B0939A0280919B0290919C02A0919D028D
:10075000B0919E020196A11DB11D80939B029093C2
:100760009C02A0939D02B0939E02BF91AF919F9176
:100770008F913F912F910F900FBE0F901F90189562
:100780002FB7F89460919702709198028091990226
:1007900090919A022FBF08953FB7F89480919B02E1
:1007A00090919C02A0919D02B0919E0226B5A89BBB
:1007B00005C02F3F19F00196A11DB11D3FBF66274F
:1007C000782F892F9A2F620F711D811D911D42E094
:1007D000660F771F881F991F4A95D1F70895CF920A
:1007E000DF92EF92FF92CF93DF936B017C01D4DF16
:1007F000EB01C114D104E104F10479F0EEDDCCDFAA
:100800006C1B7D0B683E7340A0F381E0C81AD108D1
:10081000E108F108C851DC4FECCFDF91CF91FF9098
:10082000EF90DF90CF900895789484B5826084BD76
:1008300084B5816084BD85B5826085BD85B58160E4
:1008400085BDEEE6F0E0808181608083E1E8F0E044
:100850001082808182608083808181608083E0E873
:10086000F0E0808181608083E1EBF0E08081846052
:100870008083E0EBF0E0808181608083E1E9F0E05B
:10088000808182608083808181608083E0E9F0E004
:10089000808181608083E1EAF0E0808182608083F2
:1008A000808181608083E0EAF0E0808181608083E4
:1008B000E1E2F1E0808182608083808181608083D9
:1008C000E0E2F1E0808181608083EAE7F0E080810E
:1008D0008460808380818260808380818160808366
:1008E0008081806880831092C100089590E0FC01AF
:1008F0003197E231F10508F04CC0EE58FF4F0C94EF
:100900001C1C809180008F7703C0809180008F7DB8
:1009100080938000089580918000877FF9CF84B50F
:100920008F7702C084B58F7D84BD08958091B0001B
:100930008F7703C08091B0008F7D8093B0000895C1
:10094000809190008F7707C0809190008F7D03C0C9
:1009500080919000877F8093900008958091A000FF
:100960008F7707C08091A0008F7D03C08091A00089
:10097000877F8093A0000895809120018F7707C022
:10098000809120018F7D03C080912001877F80931B
:1009900020010895CF93DF9390E0FC01E25BFE4FCE
:1009A0002491FC01EC56FE4F8491882349F190E09C
:1009B000880F991FFC01EC50FE4FA591B49186520F
:1009C0009E4FFC01C591D4919FB7611108C0F89466
:1009D0008C91209582238C93888182230AC0623077
:1009E00051F4F8948C91322F309583238C93888125
:1009F000822B888304C0F8948C91822B8C939FBFA8
:100A0000DF91CF9108950F931F93CF93DF931F92A0
:100A1000CDB7DEB7282F30E0F901E85FFE4F8491B3
:100A2000F901E25BFE4F1491F901EC56FE4F04917F
:100A30000023C1F0882319F0698358DF6981E02F12
:100A4000F0E0EE0FFF1FE652FE4FA591B4919FB765
:100A5000F8948C91611103C01095812301C0812B02
:100A60008C939FBF0F90DF91CF911F910F910895AD
:100A7000FC01818D228D90E0805C9F4F821B91094B
:100A80008F7399270895FC01918D828D981731F00D
:100A9000828DE80FF11D858D90E008958FEF9FEF17
:100AA0000895FC01918D828D981761F0828DDF0190
:100AB000A80FB11D5D968C91928D9F5F9F73928F51
:100AC00090E008958FEF9FEF0895FC01848DDF0182
:100AD000A80FB11DA35ABF4F2C91848D90E00196B1
:100AE0008F739927848FA689B7892C93A089B189A0
:100AF0008C9180648C93938D848D981306C00288AA
:100B0000F389E02D80818F7D80830895CF93DF93DB
:100B1000EC01888D8823C1F0EA89FB89808185FDFD
:100B200005C0A889B9898C9186FD0EC00FB607FC57
:100B3000F5CF808185FFF2CFA889B9898C9185FF97
:100B4000EDCFCE01C2DFE8CFDF91CF910895CF92F4
:100B5000DF92FF920F931F93CF93DF931F92CDB736
:100B6000DEB76C01DC015B969C915B975C968C9187
:100B70005C97981307C05096ED91FC915197808136
:100B800085FD31C0F601038D10E00F5F1F4F0F731D
:100B90001127F02EF601848DF81210C00FB607FC55
:100BA000F9CFD6015096ED91FC915197808185FF48
:100BB000F1CFC601698389DF6981ECCF838DE80FAE
:100BC000F11DE35AFF4F6083D6015B960C935B9750
:100BD0005296ED91FC91539780818062808381E0F1
:100BE00058968C930DC0D6015696ED91FC9157976F
:100BF00060835096ED91FC91519780818064808351
:100C000081E090E00F90DF91CF911F910F91FF90C5
:100C1000DF90CF9008951F920F920FB60F9211247C
:100C20000BB60F922F938F939F93EF93FF93E091C7
:100C3000AF02F091B0028081E091B502F091B6026E
:100C400082FD12C090818091B8028F5F8F732091D6
:100C5000B902821751F0E091B802F0E0E156FD4F81
:100C6000958F8093B80201C08081FF91EF919F9191
:100C70008F912F910F900BBE0F900FBE0F901F9072
:100C800018951F920F920FB60F9211240BB60F9268
:100C90002F933F934F935F936F937F938F939F9384
:100CA000AF93BF93EF93FF938FE992E00EDFFF9135
:100CB000EF91BF91AF919F918F917F916F915F91D4
:100CC0004F913F912F910F900BBE0F900FBE0F9041
:100CD0001F9018951092A2021092A10288EE93E044
:100CE000A0E0B0E08093A3029093A402A093A50299
:100CF000B093A60282E292E09093A00280939F02BA
:100D000085EC90E09093AC028093AB0284EC90E091
:100D10009093AE028093AD0280EC90E09093B0028D
:100D20008093AF0281EC90E09093B2028093B10285
:100D300082EC90E09093B4028093B30286EC90E052
:100D40009093B6028093B5021092B8021092B90245
:100D50001092BA021092BB0208951F920F920FB622
:100D60000F9211240BB60F922F938F939F93EF93B3
:100D7000FF93E0914C03F0914D038081E091520389
:100D8000F091530382FD12C09081809155038F5FD3
:100D90008F7320915603821751F0E0915503F0E0D4
:100DA000E45CFC4F958F8093550301C08081FF91D7
:100DB000EF919F918F912F910F900BBE0F900FBECF
:100DC0000F901F9018951F920F920FB60F9211243B
:100DD0000BB60F922F933F934F935F936F937F9335
:100DE0008F939F93AF93BF93EF93FF938CE393E025
:100DF0006CDEFF91EF91BF91AF919F918F917F91A9
:100E00006F915F914F913F912F910F900BBE0F907B
:100E10000FBE0F901F90189510923F0310923E0343
:100E200088EE93E0A0E0B0E080934003909341030C
:100E3000A0934203B093430382E292E090933D0378
:100E400080933C038DEC90E090934903809348039A
:100E50008CEC90E090934B0380934A0388EC90E0F5
:100E600090934D0380934C0389EC90E090934F0353
:100E700080934E038AEC90E090935103809350034B
:100E80008EEC90E09093530380935203109255039D
:100E900010925603109257031092580308951F9210
:100EA0000F920FB60F9211240BB60F922F938F93C0
:100EB0009F93EF93FF93E091E903F091EA03808120
:100EC000E091EF03F091F00382FD12C090818091D8
:100ED000F2038F5F8F732091F303821751F0E0913B
:100EE000F203F0E0E752FC4F958F8093F20301C0CC
:100EF0008081FF91EF919F918F912F910F900BBE69
:100F00000F900FBE0F901F9018951F920F920FB663
:100F10000F9211240BB60F922F933F934F935F9331
:100F20006F937F938F939F93AF93BF93EF93FF93B1
:100F300089ED93E0CADDFF91EF91BF91AF919F9151
:100F40008F917F916F915F914F913F912F910F9072
:100F50000BBE0F900FBE0F901F9018951092DC03E0
:100F60001092DB0388EE93E0A0E0B0E08093DD0315
:100F70009093DE03A093DF03B093E00382E292E05C
:100F80009093DA038093D90385ED90E09093E60384
:100F90008093E50384ED90E09093E8038093E7036A
:100FA00080ED90E09093EA038093E90381ED90E077
:100FB0009093EC038093EB0382ED90E09093EE032B
:100FC0008093ED0386ED90E09093F0038093EF0320
:100FD0001092F2031092F3031092F4031092F503AF
:100FE00008951F920F920FB60F9211240BB60F9215
:100FF0002F938F939F93EF93FF93E0918604F0914B
:1010000087048081E0918C04F0918D0482FD12C0F0
:10101000908180918F048F5F8F732091900482174D
:1010200051F0E0918F04F0E0EA58FB4F958F8093E8
:101030008F0401C08081FF91EF919F918F912F913B
:101040000F900BBE0F900FBE0F901F9018951F9220
:101050000F920FB60F9211240BB60F922F933F935E
:101060004F935F936F937F938F939F93AF93BF93B0
:10107000EF93FF9386E794E028DDFF91EF91BF9116
:10108000AF919F918F917F916F915F914F913F9120
:101090002F910F900BBE0F900FBE0F901F901895C1
:1010A000109279041092780488EE93E0A0E0B0E00A
:1010B00080937A0490937B04A0937C04B0937D0486
:1010C00082E292E0909377048093760485E391E046
:1010D000909383048093820484E391E09093850449
:1010E0008093840480E391E0909387048093860446
:1010F00081E391E0909389048093880482E391E0F6
:1011000090938B0480938A0486E391E090938D04FE
:1011100080938C0410928F0410929004109291048A
:10112000109292040895AF92BF92CF92DF92EF9205
:10113000FF920F931F93CF93DF936C017B01C0E06D
:10114000D0E000E010E0F601EC0FFD1F4AE050E0B7
:101150006281C701F8D05C016EE2C70189D08A0DB7
:101160009B1D080F191F2196C330D10561F74AE076
:1011700050E0F6016581C701E6D0800F911FDF9135
:10118000CF911F910F91FF90EF90DF90CF90BF9084
:10119000AF90089522E332E0FC0131832083128274
:1011A00013821482158208950F93FC0182E392E06A
:1011B0009183808362834383248305830F91089501
:1011C000FB014081518162817381FC014283538321
:1011D00064837583089582E392E09093140580936D
:1011E000130510921505109216051092170510920E
:1011F00018050895CF92DF92EF92FF920F931F93FD
:10120000CF93DF936C017A01EB01E60EF71E00E04D
:1012100010E0CE15DF0561F06991D601ED91FC91EA
:101220000190F081E02DC6011995080F191FF1CF2B
:10123000C801DF91CF911F910F91FF90EF90DF9048
:10124000CF9008956115710581F0DB010D900020AC
:10125000E9F7AD0141505109461B570BDC01ED91F7
:10126000FC910280F381E02D199480E090E00895D4
:10127000DC01ED91FC910190F081E02D19948F92A9
:101280009F92AF92BF92CF92DF92EF92FF920F9315
:101290001F93CF93DF93CDB7DEB7A1970FB6F89426
:1012A000DEBF0FBECDBF7C01C42EE52FCB01D22EF9
:1012B00019A221E02D1510F02AE0D22E8E010F5D2B
:1012C0001F4F8D2C912CA12CB12C6C2D7E2FA501A4
:1012D00094010E94FA1B8C2DD29E8019112401507A
:1012E00011098A3014F4805D01C0895CF8018083A3
:1012F000211531054105510521F0C22EE32FCA0108
:10130000E4CFB801C7019EDFA1960FB6F894DEBF07
:101310000FBECDBFDF91CF911F910F91FF90EF9046
:10132000DF90CF90BF90AF909F908F900895211540
:10133000310541F4DC01ED91FC910190F081E02D4B
:10134000642F19949CCF9A01462F50E060E070E022
:10135000EECF8230A9F028F4882349F0813051F093
:101360000895843009F1E8F0853009F1089510926C
:101370006E00089580916F008D7F80936F000895B7
:10138000809170008D7F8093700081E08093B00029
:101390008091B100887F84608093B1001092B30087
:1013A000089510927100089510927200089510929D
:1013B00073000895CF93C82F809113028C1307C038
:1013C000EEE0F2E084919FEF9093130201C08FEF63
:1013D000C0DF60E08C2FCF9116CB1F920F920FB61B
:1013E0000F9211240BB60F922F933F934F935F935D
:1013F0006F937F938F939F93AF93BF93EF93FF93DD
:1014000080911C0590911D05A0911E05B0911F05AE
:10141000892B8A2B8B2B51F190911905E0911A059C
:10142000F0911B0580818927808380911C05909114
:101430001D05A0911E05B0911F05181619061A0664
:101440001B06BCF480911C0590911D05A0911E0502
:10145000B0911F050197A109B10980931C059093D4
:101460001D05A0931E05B0931F0503C080911302B4
:10147000A1DFFF91EF91BF91AF919F918F917F91EC
:101480006F915F914F913F912F910F900BBE0F90F5
:101490000FBE0F901F9018950895CF93DF9300D043
:1014A00000D0CDB7DEB78091200590912105892B22
:1014B00041F582E392E09A83898380912A05909195
:1014C0002B05A0912C05B0912D058B839C83AD83BA
:1014D000BE83AE014F5F5F4F64E172E084E395E04D
:1014E0000ED2E0912205F09123050480F581E02DD4
:1014F00082E295E0199581E090E090932105809338
:10150000200526960FB6F894DEBF0FBECDBFDF9143
:10151000CF9108950F9300E020E040E060E08EE27C
:1015200095E042DE04E120E048EA60EC88E295E0E4
:101530003BDE68E077E182E295E00F9130C7EF9201
:10154000FF920F931F93CF93DF93CDB7DEB72D9705
:101550000FB6F894DEBF0FBECDBF7B0126E0829FA1
:10156000B00111246E5D7A4FCE010196D3D7CE0122
:10157000019616D58823A1F0CE01019645D5F70135
:10158000808341E050E060E070E0019619F440E0B3
:1015900050E0BA01F801408351836283738305C030
:1015A000F80110821182128213822D960FB6F894E0
:1015B000DEBF0FBECDBFDF91CF911F910F91FF9086
:1015C000EF9008951F920F920FB60F9211240BB651
:1015D0000F922F933F934F935F936F937F938F93CC
:1015E0009F93AF93BF93EF93FF9387EF92EC90930A
:1015F0002501809324010E94251BFF91EF91BF914B
:10160000AF919F918F917F916F915F914F913F919A
:101610002F910F900BBE0F900FBE0F901F9018953B
:1016200087EF92EC9093250180932401A3E7B0E02B
:101630008C918E7F8C93E0E2F1E080818C7F8083BF
:10164000E1E2F1E08081877E808380818560808314
:1016500080818D7F80838C9181608C93089520910F
:101660007C05222399F03FB7F89420917C05213026
:1016700059F42DB320937A054DB320917B05209525
:1016800024232DBB3FBF02C030937A058CBD9DBD86
:10169000089580917C05882361F09FB7F89420918C
:1016A0007C0580917A05213019F48DBB9FBF089588
:1016B0008FBF089544E050E0BC0181E090E00C94BD
:1016C000201944E050E0BC0185E090E00C94201922
:1016D00044E050E0BC018FE090E00C9420198F9220
:1016E0009F92AF92BF92CF92DF92EF92FF920F93B1
:1016F0001F93CF93DF931F921F92CDB7DEB74C019C
:101700006A0159018AE695E069837A830E94BC18D0
:1017100080E590E0A4DF46E050E069817A8189E0CD
:1017200090E00E942019C6010296D2DFC8010296FD
:10173000C1DFC7010296C5DFACDFF50142815381ED
:1017400064817581F40142835383648375830F90B0
:101750000F90DF91CF911F910F91FF90EF90DF904D
:10176000CF90BF90AF909F908F9008956F927F928F
:101770008F929F92AF92BF92CF92DF92EF92FF92A1
:101780000F931F93CF93DF93CDB7DEB76E970FB64E
:10179000F894DEBF0FBECDBF6C015B017A01490139
:1017A000380100E02FEF4FEF6FEFCE014996FCDCE0
:1017B00022E332E03A8329838B8D9C8DAD8DBE8DE3
:1017C0008B839C83AD83BE8338872F83F301828113
:1017D0009381A481B58189879A87AB87BC873E872F
:1017E0002D87F40182819381A481B5818F87988BA5
:1017F000A98BBA8B3C8B2B8BF7014281538164817F
:1018000075814D8B5E8B6F8B788FCE0101967C013D
:101810008E01095F1F4F9E01235F3F4FAE014D5E5A
:101820005F4FB501C6015BDF6E960FB6F894DEBF61
:101830000FBECDBFDF91CF911F910F91FF90EF9021
:10184000DF90CF90BF90AF909F908F907F906F90E0
:101850000895CF92DF92EF92FF920F931F93CF9351
:10186000DF93CDB7DEB768970FB6F894DEBF0FBE33
:10187000CDBF6B017901DA0112964D915D916D91A9
:101880007C9115974D8B5E8B6F8B788FA2E3B2E0C6
:10189000BA83A98321E0288F0D891E892F89388D6D
:1018A0000B831C832D833E83B887AF83F7010281AE
:1018B00013812481358109871A872B873C87BE874E
:1018C000AD874F87588B698B7A8B8E010F5F1F4FC7
:1018D0009E01295F3F4FAE01435F5F4FB60146DF78
:1018E00068960FB6F894DEBF0FBECDBFDF91CF91E3
:1018F0001F910F91FF90EF90DF90CF9008950F937D
:101900001F93CF93DF93CDB7DEB762970FB6F894EE
:10191000DEBF0FBECDBFDB01FA014281538164817E
:1019200075814F87588B698B7A8BE2E3F2E0FA83FB
:10193000E98321E02A8B0F85188929893A890B834D
:101940001C832D833E83F887EF8349875A876B87F3
:101950007C879E012F5F3F4FAE01495F5F4FBD0106
:1019600078DF62960FB6F894DEBF0FBECDBFDF9171
:10197000CF911F910F91089522E332E0FC01318352
:101980002083FB014281538164817581FC01428384
:1019900053836483758308950F9300E020E040E053
:1019A00060E084E495E000DC84E395E00F91F2CB05
:1019B0000F9300E020E040E060E08AE495E0F4DB93
:1019C0000F910895FB014281538164817581FC016F
:1019D0004283538364837583178216820895CF935D
:1019E000FB0181918111FDCFFB0180E090E020E0BF
:1019F00030E0CAE06191662309F12430310564F5D5
:101A00006E3271F48F3F910509F034F5DA01A20FBF
:101A1000B31F12968C932F5F3F4F80E090E0EACF88
:101A2000DC01CA9FC001CB9F900D1124772767FD71
:101A3000709560537109860F971FDCCF8F3F91051A
:101A400009F054F4243031053CF4FA01E20FF31F9D
:101A5000828381E090E002C080E090E0CF91089521
:101A60000F9300E020E040E060E080E595E09CDB43
:101A70000F910895AF92BF92CF92DF92EF92FF92B3
:101A80000F931F93CF93DF9300D0CDB7DEB76C01D8
:101A90007B010E94C003F601778366838601085F9D
:101AA0001F4FB6016A5F7F4F42E050E0C8010DD67C
:101AB00081E090E09A83898342E050E0BE016F5F4D
:101AC0007F4FC80102D680E091E09A83898342E08B
:101AD00050E0BE016F5F7F4FC801F7D51A821982AF
:101AE00042E050E0BE016F5F7F4FC801EED542E09B
:101AF00050E0BE016F5F7F4FC801E7D542E050E084
:101B0000BE016F5F7F4FC801E0D56701F60180819C
:101B1000882301F1F7016F018191811113C05601F2
:101B2000AE18BF081A141B0484F4AB8241E050E0E5
:101B3000BE016D5F7F4FC801C8D5A501B701C801BF
:101B4000C4D503C08E3239F7EACF7601FFEFEF1A22
:101B5000FF0ADCCF1B8241E050E0BE016D5F7F4F8A
:101B6000C801B3D5E12CFF24F394FA82E98242E064
:101B700050E0BE016F5F7F4FC801A7D5FA82E982AE
:101B800042E050E0BE016F5F7F4FC8019ED581E00B
:101B900090E00F900F900F90DF91CF911F910F91D8
:101BA000FF90EF90DF90CF90BF90AF9008954F924D
:101BB0005F926F927F928F929F92AF92BF92CF92DD
:101BC000DF92EF92FF920F931F93CF93DF93CDB7E6
:101BD000DEB763970FB6F894DEBF0FBECDBF7C01B2
:101BE0005B016A010E94C0032B013C018701085F71
:101BF0001F4F4501A12CB12CC80101D6181619069A
:101C000094F00E94C0036419750986099709861625
:101C10009706A806B906D0F062E370E080E090E095
:101C20000E94EF03E9CFF7014281538164817581FE
:101C3000818D928DA38DB48D481759076A077B0754
:101C400041F4858D968DC59721F406C08FEF9FEFE7
:101C5000E0C08EEF9FEFDDC0C801EDD40C970CF40F
:101C6000D6C04CE050E0BE016F5F7F4FC80168D521
:101C70008B819C819827892798279A8B898BF701DC
:101C80004681578129813A814217530711F497FD04
:101C900005C0C801EAD48CEF9FEFBBC08F70927073
:101CA000892B29F0C801E1D48BEF9FEFB2C0AF8040
:101CB000B884BA24AB24BA24A114B10419F0E12CDD
:101CC000F12C1DC0C801D1D48AEF9FEFA2C041E022
:101CD00050E0BE01635F7F4FC80132D58D85811111
:101CE00017C08D858111F3CFC80102D5C80100D579
:101CF000C801FED4C801FCD4FFEFEF1AFF0A8D81A2
:101D00009E81982789279827E816F90600F309C0CD
:101D10008D859FEF980F9D87882319F3C801E8D41C
:101D2000F7CFE12CF12C41E050E0BE016D5E7F4F1A
:101D3000C80106D58B89982F907C59F4882361F0CF
:101D40008B899FEF980F9B8B882331F0C801D0D4EB
:101D5000F7CFC801CDD41B8A8B898111E4CF42E033
:101D600050E0BE01615F7F4FC801EAD442E050E01D
:101D7000BE01635F7F4FC801E3D4C801B9D4C80175
:101D8000B7D4C801B5D4C801B3D442E050E0BE0115
:101D90006F5E7F4FC801D4D48F859889811591409B
:101DA00029F48D859E858115914019F0812C912C07
:101DB00014C089899A898115944029F0C80155D4A5
:101DC00087EF9FEF26C0B6016E5F7F4F44E050E083
:101DD000C801B6D481E090E01CC089899A8998270F
:101DE000892798278816990630F4C80181D42FEFE7
:101DF000821A920AF2CF8FEFE81AF80AEA14FB046B
:101E000009F091CFC80131D486EF9FEF02C08DEF6A
:101E10009FEF63960FB6F894DEBF0FBECDBFDF9184
:101E2000CF911F910F91FF90EF90DF90CF90BF90D7
:101E3000AF909F908F907F906F905F904F9008959C
:101E40008F929F92AF92BF92CF92DF92EF92FF92CA
:101E50000F931F93CF93DF9300D000D0CDB7DEB7A1
:101E60008C015B016A01BBDD4C01009709F057C092
:101E7000F80142815381648175818091520590916E
:101E80005305A0915405B0915505481759076A07A5
:101E90007B0709F448C00E94C0037801F8E0EF0E08
:101EA000F11C6F7077277C5FC7017ED4813009F009
:101EB0003EC082E392E09A838983F8018281938114
:101EC000A481B5818B839C83AD83BE8345E350E0C1
:101ED000BE016F5F7F4FC701EED3892B19F4812CB0
:101EE000912C1AC0B501C801C5DD892BC1F3C7010A
:101EF000E9D3892BA1F333E0A32EB12CA60168E826
:101F000073E1C80154DE4C01F1E0AF1AB10821F0D1
:101F10008F3F2FEF920791F3C701B9D308C08824F0
:101F20008394912C04C09EEF892E99249A94C40125
:101F300026960FB6F894DEBF0FBECDBFDF91CF91CE
:101F40001F910F91FF90EF90DF90CF90BF90AF90D7
:101F50009F908F90089581E086270895862F089599
:101F6000DC01ED91FC91048CF58DE02D199591E04B
:101F700089270895CF93DF931F92CDB7DEB769838A
:101F8000DC01ED91FC910280F381E02D41E050E015
:101F9000BE016F5F7F4F19950F90DF91CF9108952C
:101FA00021E0FC018485843009F420E0822F08952B
:101FB000FC019485FB018485981303C081E0943073
:101FC00009F480E008950F931F93CF93DF93EC0102
:101FD0008A018C85843019F094D6892B39F481E0FC
:101FE00090E09B838A8380E090E001C0C801DF918C
:101FF000CF911F910F910895FC018485843009F0E1
:1020000067C780E090E00895CF93DF931F92CDB72C
:10201000DEB741E050E0BE016F5F7F4FFC01848579
:10202000FBD6181619061CF4898190E002C08FEFC8
:102030009FEF0F90DF91CF910895FC018485ECC64E
:102040000F931F93CF93DF931F92CDB7DEB78C0111
:10205000DC01ED91FC910480F581E02D1995892B2F
:1020600049F0BE016F5F7F4FF80184855AD789819F
:1020700090E002C08FEF9FEF0F90DF91CF911F9103
:102080000F910895FC0184857AC7CF92DF92EF9279
:10209000FF920F931F93CF93DF93CDB7DEB7AF9728
:1020A0000FB6F894DEBF0FBECDBF7C018B016A0175
:1020B000CE0101966FD8CE010996EFD3CE018A9654
:1020C00069D864E375E0CE01849656DCBE016C5D90
:1020D0007F4FCE01019676DCAE01465D5F4FB801C1
:1020E000CE010196ADDE81309105C1F4D701ED91AD
:1020F000FC910484F585E02D82E392E09DA38CA3FE
:102100000CA51DA52EA53FA50EA31FA328A739A783
:10211000A601BE016C5D7F4FC7011995AF960FB642
:10212000F894DEBF0FBECDBFDF91CF911F910F910D
:10213000FF90EF90DF90CF900895FC01262F13823F
:10214000128248EE53E060E070E04483558366837A
:10215000778388E392E09183808324870895FC014C
:102160008485843009F086C480E00895DF92EF9280
:10217000FF920F931F93CF93DF93EC017B018A01B2
:102180008C85843009F040C0D12C8D2D73D4811101
:1021900002C0DC8607C08B7F8831D9F3D39484E0FA
:1021A000D812F3CF8C85843079F120911A023091C6
:1021B0001B022F5F3F4F11F420E030EC30931B02E5
:1021C00020931A0240911A0250911B0220E061E014
:1021D0009ED4B7016E5F7F4FA8018C8518D5811101
:1021E00003C084E08C8710C0CE01B9DF873149F08D
:1021F00061E070E080E090E00E94EF03CE01AFDF8D
:10220000EECF81E090E002C080E090E0DF91CF91DE
:102210001F910F91FF90EF90DF900895CF92DF9282
:10222000EF92FF92CF93DF93EC018C85843061F1C4
:1022300043D50E94C0036B017C01CE0190DF88234F
:1022400059F00E94C0036C197D098E099F09683EF0
:1022500073408105910588F0CE0181DF882311F05C
:102260008C852DD4EC85F0E0EE0FFF1FE45CFA4F77
:102270001182108284E08C8707C061E070E080E00A
:1022800090E00E94EF03D9CFDF91CF91FF90EF90C4
:10229000DF90CF900895CF93DF93EC018C8584304D
:1022A000C9F0CE015CDF8431A9F0882399F0883130
:1022B00089F08C3169F4E881F9810480F581E02DA1
:1022C000CE01199521E0892B09F420E0822F03C06B
:1022D00081E001C080E0DF91CF9108950F9300E08D
:1022E00020E040E060E086E595E00E94D4080F9190
:1022F0000895CF93DF931F92CDB7DEB76983DC01DA
:10230000ED91FC910280F381E02D41E050E0BE01AF
:102310006F5F7F4F19950F90DF91CF910895EF92E6
:10232000FF920F931F93CF93DF93CDB7DEB72D9717
:102330000FB6F894DEBF0FBECDBF7C0100E010E009
:10234000602FCE010196F9DECE01019608DF8111E2
:1023500014C0F7014481558120E061E0802FD7D37C
:10236000802F25D4F70184819581F801EE0FFF1F9E
:10237000E45CFA4F9183808305C00F5F1F4F0430E8
:102380001105F1F62D960FB6F894DEBF0FBECDBF46
:10239000DF91CF911F910F91FF90EF900895FC0175
:1023A000138212828CE592E091838083758364832B
:1023B0000895BF92CF92DF92EF92FF920F931F93F7
:1023C000CF93DF93CDB7DEB72D970FB6F894DEBF6E
:1023D0000FBECDBF8C014CE3C42E45E0D42EB12CF2
:1023E000E12CF12C6B2DCE010196A7DED6012D91AB
:1023F0003D916D01F801848195812817390799F481
:10240000CE010196ACDE843159F0CE010196A7DEF3
:102410008C3149F4CE010196EFDD892B99F003C090
:10242000EE24E394F12CB394F4E0BF12DBCFEF2859
:1024300069F4D801ED91FC910480F581E02DC8018B
:10244000199504C0CE010196E9DEEDCF2D960FB6A9
:10245000F894DEBF0FBECDBFDF91CF911F910F91DA
:10246000FF90EF90DF90CF90BF9008957F928F9272
:102470009F92AF92BF92CF92DF92EF92FF920F9313
:102480001F93CF93DF93CDB7DEB72D970FB6F89498
:10249000DEBF0FBECDBF6C015B014A018ADF5CE38A
:1024A000E52E55E0F52E712C00E010E0672DCE01F1
:1024B000019643DEF701219131917F01F60184817C
:1024C00095812817390729F4CE01019648DE873116
:1024D000C9F07394F4E07F12E9CFC8012D960FB6CE
:1024E000F894DEBF0FBECDBFDF91CF911F910F914A
:1024F000FF90EF90DF90CF90BF90AF909F908F9024
:102500007F900895A401B501CE0101965CDD080F0E
:10251000191FDFCFBF92CF92DF92EF92FF920F93FE
:102520001F93CF93DF93CDB7DEB72D970FB6F894F7
:10253000DEBF0FBECDBF8C016B01CB013ADF6CE378
:10254000E62E65E0F62EB12C6B2DCE010196F5DD61
:10255000F701219131917F01F6018481958128173E
:10256000390751F4CE010196FADD873169F0CE01C9
:102570000196F5DD8C3141F0B394F4E0BF12E4CF65
:1025800064E0C801DADD20C0CE01019635DD892B7B
:1025900099F38B819C81F801938382838D819E8145
:1025A000AF81B88584839583A683B78349855A858F
:1025B0006B857C85408751876287738788E392E0CB
:1025C000918380838D858487C8012D960FB6F894FA
:1025D000DEBF0FBECDBFDF91CF911F910F91FF9056
:1025E000EF90DF90CF90BF9008950F9300E020E030
:1025F00040E060E08CE595E00E94D4080F910895DA
:10260000DC01ED91FC91008CF18DE02D199422E319
:1026100032E0FC0131832083FB01418952896389C7
:102620007489FC0142835383648375830895FC019C
:10263000858996890895FC01818D928D0895CF93A7
:10264000DF931F92CDB7DEB76983DC01ED91FC917A
:102650000280F381E02D41E050E0BE016F5F7F4FCB
:1026600019950F90DF91CF910895CF93DF93EC01EF
:10267000898D9A8D892B41F0E881F9810680F78157
:10268000E02DCE011995F4CFDF91CF910895CF932E
:10269000DF93EC018C85843059F011D2EC85F0E0A9
:1026A000EE0FFF1FE45CFA4F1182108284E08C87EA
:1026B000DF91CF910895FC01108E178A6E5F7F4FD6
:1026C0008485A2C4FC018485E3C4CF93DF93EC012D
:1026D0009A018F89988DAB01BC018C8551D42F89CB
:1026E000388D280F391F388F2F8BDF91CF910895A8
:1026F0000F931F93CF93DF931F92CDB7DEB78C015B
:10270000FC01818D928D892B51F041E050E0BE019A
:102710006F5F7F4F848580D3181619061CF08FEFEA
:102720009FEF08C0F801818D928D0197928F818F64
:10273000898190E00F90DF91CF911F910F910895C3
:10274000CF93DF93EC01898D9A8D009719F48FEF69
:102750009FEF0FC04817590708F0AC018C855CD378
:1027600018161906A4F7298D3A8D281B390B3A8FB4
:10277000298FDF91CF910895CF93DF931F92CDB72B
:10278000DEB7FC01218D328D232B41F0BE016F5F3E
:102790007F4F8485C6D3898190E002C08FEF9FEF81
:1027A0000F90DF91CF910895FF920F931F93CF93D6
:1027B000DF93EC018B018C858430D1F4F12C8F2DCB
:1027C00059D1811102C0FC8606C08831E1F3F3942F
:1027D00084E0F812F4CF8C85843051F01E870D8789
:1027E0001A8E198E20E0A80162E091D181E001C02B
:1027F00080E0DF91CF911F910F91FF9008950F938B
:102800001F93CF93DF93CDB7DEB728970FB6F89419
:10281000DEBF0FBECDBF8C01DC01ED91FC910284C7
:10282000F385E02D1995F801848552D31816190601
:102830003CF548E050E0BE016F5F7F4FD8011C9629
:102840008C91EAD218161906ECF4BE016F5F7F4F27
:10285000C8010F960E94E0088D8190E0982F88278C
:102860002E81820F911DF801968B858B8F8190E0D0
:10287000982F88272885820F911D928F818F02C003
:1028800080E090E028960FB6F894DEBF0FBECDBF73
:10289000DF91CF911F910F910895FC011382128255
:1028A00048EE53E060E070E04483558366837783AD
:1028B00086E692E09183808384E08487CF010F963F
:1028C0000C94CA08CF92DF92EF92FF920F931F935E
:1028D000CF93DF93CDB7DEB7AF970FB6F894DEBFD7
:1028E0000FBECDBF7C018B016A01CE0101960E9413
:1028F000CA08CE010996D1DFCE018A960E94CA0885
:1029000064E375E0CE01849637D8BE016C5D7F4FDD
:10291000CE01019657D8AE01465D5F4FB801CE019A
:1029200001968EDA81309105C1F4D701ED91FC91C9
:102930000088F189E02D82E392E09DA38CA30CA591
:102940001DA52EA53FA50EA31FA328A739A7A60145
:10295000BE016C5D7F4FC7011995AF960FB6F89415
:10296000DEBF0FBECDBFDF91CF911F910F91FF90C2
:10297000EF90DF90CF9008950F9300E020E040E0CB
:1029800060E082E695E00E94D4080F910895CF920E
:10299000DF92EF92FF920F9330E0C12CF2E1DF2E35
:1029A000FAE7EF2EF12C4C155D056E057F0540F41E
:1029B000F694E794D794C7943F5F3630A1F737E099
:1029C00041E04327211102C050E701C050E5242F08
:1029D00030E03595279523700C70202B252BFC01BA
:1029E0002083417041830F91FF90EF90DF90CF9053
:1029F000089590E0982F882744E050E0845F9B4F33
:102A00001FC4282F30E02C5F3F4F922F8827860F5E
:102A1000971F3FC462E070E0F4CFFB01282F30E045
:102A20002C5F3F4F922F8827642F8E0F9F1F87C3E5
:102A3000CF93DF93C82FD62F472F64E070E0EDDFF0
:102A40004D2F65E070E08C2FDF91CF91E6CF462FC0
:102A500062E070E0E2CFCF93DF93C82FD62F472FED
:102A600060E170E0DADF4D2F61E170E08C2FDF91E3
:102A7000CF91D3CF0F931F93CF93DF9300D0CDB7D8
:102A8000DEB7182F00E021E040E059E06DE370E090
:102A9000CE0101967CDF89819A810E942F0B63E031
:102AA00070E0812FAEDF8B830E94490B8B810F90EA
:102AB0000F900F90DF91CF911F910F9108950F9379
:102AC0001F93CF93DF931F921F92CDB7DEB7182FBE
:102AD00000E021E040E059E06DE370E0CE010196B6
:102AE00056DF89819A810E942F0B40E150E0612FCF
:102AF0008AE695E077D56FEF812FA9DF0E94490B19
:102B00000F900F90DF91CF911F910F910895CF9269
:102B1000DF92EF92FF920F931F93CF93DF931F9259
:102B20001F92CDB7DEB7182FD62E7A01C22E8FEFA7
:102B3000860F853080F5812FC2DF00E021E040E084
:102B400059E06DE370E0CE01019621DF89819A8121
:102B50000E942F0B4D2D4C2960E070E0812F5DDF2E
:102B6000E114F10411F0B7010AC060916805709199
:102B700069056F5F7F4F7093690560936805812FCA
:102B800057DF41E050E0612F8AE695E02BD50E94A7
:102B9000490B81E001C080E00F900F90DF91CF9151
:102BA0001F910F91FF90EF90DF90CF9008950F93BA
:102BB0001F93CF93DF931F921F92CDB7DEB7182FCD
:102BC00000E021E040E059E06DE370E0CE010196C5
:102BD000DEDE89819A810E942F0B63E070E0812FF5
:102BE00010DF833121F00E94490B80E009C042E0F0
:102BF00050E0612F8AE695E0F5D40E94490B81E010
:102C00000F900F90DF91CF911F910F910895CF9268
:102C1000DF92EF92FF920F931F93CF93DF931F9258
:102C20001F92CDB7DEB7182F7B016A01FB018081AF
:102C30008F3F51F481818F3F99F482818F3F81F4DE
:102C400083818F3F69F42CC081110AC0FB0181810F
:102C5000811106C08281811103C08381882301F123
:102C6000C114D104E9F000E021E040E059E06DE357
:102C700070E0CE0101968BDE89819A810E942F0B34
:102C8000B701812FB6DEB601812FE5DE44E050E0CA
:102C9000612F8AE695E0A6D40E94490B81E001C02D
:102CA00080E00F900F90DF91CF911F910F91FF90D7
:102CB000EF90DF90CF9008950F931F93CF93DF9302
:102CC0001F921F92CDB7DEB7182F00E021E040E041
:102CD00059E06DE370E0CE01019659DE89819A8159
:102CE0000E942F0B48E050E0612F8AE695E07AD4ED
:102CF0000E94490B0F900F90DF91CF911F910F9180
:102D00000895BF92CF92DF92EF92FF920F931F939D
:102D1000CF93DF9300D0CDB7DEB7B82E6B017A0129
:102D2000413088E0580718F0E12C98E0F92E00E0D7
:102D300021E040E059E06DE370E0CE01019627DE2E
:102D400089819A810E942F0B6B2D8AE695E0D1D262
:102D50008C0163E070E08B2D54DE8B830E94490B65
:102D60008B81873111F08C3131F40E94ED010E1509
:102D70001F05E8F202C0E12CF12C00E021E040E068
:102D800059E06DE370E0CE01019601DE89819A8100
:102D90000E942F0B9701A6016B2D8AE695E05CD36C
:102DA00040E250E06B2D8AE695E01CD48B2D32DE9C
:102DB00084FD1FC063E070E08B2D23DE811107C00E
:102DC0000E94490B8B2D7BDE80E090E018C00E94B2
:102DD000490B0E94ED0100E021E040E059E06DE385
:102DE00070E0CE010196D3DD89819A810E942F0B7C
:102DF000DDCF60E18B2D2BDE0E94490BC7010F90C8
:102E00000F900F90DF91CF911F910F91FF90EF9056
:102E1000DF90CF90BF900895AF92BF92CF92DF9294
:102E2000EF92FF920F931F93CF93DF931F921F9206
:102E3000CDB7DEB7182F5B016A0100E021E040E06A
:102E400059E06DE370E0CE010196A1DD89819A81A0
:102E50000E942F0B612F8AE695E07BD27C010097C0
:102E600099F463E070E0812FCCDD843109F188238F
:102E7000F9F021E030E08C3111F420E030E0EE2474
:102E8000FF24E21AF30A14C0C816D9060CF476011E
:102E90001E141F046CF400E09701A501612F8AE65F
:102EA00095E055D340E450E0612F8AE695E09AD34F
:102EB0000E94490BC7010F900F90DF91CF911F9196
:102EC0000F91FF90EF90DF90CF90BF90AF9008955B
:102ED0000F931F93CF93DF9300D01F92CDB7DEB730
:102EE000182F00E021E040E059E06DE370E0CE01F2
:102EF00001964DDD89819A810E942F0B612F8AE610
:102F000095E027D28B839C830E94490B8B819C8107
:102F10000F900F900F900F90DF91CF911F910F9115
:102F20000895EF92FF920F931F93CF93DF931F9219
:102F30001F92CDB7DEB7182F7B0100E021E040E003
:102F400059E06DE370E0CE01019621DD89819A811F
:102F50000E942F0B01E021E030E0A701612F8AE6FB
:102F600095E0F5D20E94490B81E090E00F900F9020
:102F7000DF91CF911F910F91FF90EF9008950895E9
:102F80009F92AF92BF92CF92DF92EF92FF920F93F8
:102F90001F93CF93DF931F921F92CDB7DEB7982E6A
:102FA0006B015A01790100E021E040E059E06DE356
:102FB00070E0CE010196EBDC89819A810E942F0B93
:102FC000692D8AE695E095D18E159F0528F4692D27
:102FD0008AE695E08ED17C0187019501A601692DD5
:102FE0008AE695E0D0D10E94490BC7010F900F905F
:102FF000DF91CF911F910F91FF90EF90DF90CF90D5
:10300000BF90AF909F900895CF92DF92EF92FF9282
:103010000F931F93CF93DF931F921F92CDB7DEB70D
:10302000182F7B016A01FB018081811109C0818118
:10303000811106C08281811103C083818823D9F068
:10304000C114D104C1F000E021E040E059E06DE39B
:1030500070E0CE0101969BDC89819A810E942F0B42
:10306000B701812FC6DCB601812FF5DC0E94490B28
:1030700081E090E002C080E090E00F900F90DF913F
:10308000CF911F910F91FF90EF90DF90CF90089517
:103090000F931F93CF93DF931F921F92CDB7DEB78D
:1030A000182F00E021E040E059E06DE370E0CE0130
:1030B00001966DDC89819A810E942F0B40E250E0DD
:1030C000612F8AE695E08ED2812FA4DC84FD1EC09C
:1030D000812FA0DC83FF08C068E1812FB8DC0E944B
:1030E000490B80E090E019C00E94490B0E94ED015D
:1030F00000E021E040E059E06DE370E0CE01019690
:1031000046DC89819A810E942F0BDECF60E1812FFE
:103110009EDC0E94490B81E090E00F900F90DF91C0
:10312000CF911F910F9108958EBD00000DB407FE41
:10313000FDCF8EB508952C9808952C9A08951F936D
:10314000CF93DF931F921F92CDB7DEB7182F6A83FC
:103150009983F1DF80EFE8DF9981892FE5DF812F07
:10316000E3DF6A81862FE0DFE8DF81E00F900F90D8
:10317000DF91CF911F910895CF93DF93EC016CE223
:1031800071E080E090E00E94EF033AD2249A8091AF
:103190007C05882399F09FB7F89480917C05813055
:1031A00059F48DB380937A052DB380917B0580957A
:1031B00082238DBB9FBF02C090937A0580E58CBDB2
:1031C0001DBC60E880E090E0BADF65E58BE190E04F
:1031D000B6DF65E58AE190E0B2DF80917C05882367
:1031E00061F09FB7F89420917C0580917A05213099
:1031F00019F48DBB9FBF01C08FBF80E090E499831D
:10320000888380E090E69987888780E098E49B83B4
:103210008A8380E098E69B878A8780E090E59D839B
:103220008C8380E090E79D878C8780E098E59F8382
:103230008E8380E098E79F878E87DF91CF910895F6
:10324000CF92DF92EF92FF920F931F93CF93DF9372
:10325000EC017A018B016C01C40ED51ECC15DD0585
:1032600071F069DF80EF60DF8D2F5EDF8C2F5CDF18
:103270002196F80181918F0157DF5FDFEFCFC70102
:10328000DF91CF911F910F91FF90EF90DF90CF9042
:1032900008951F93CF93DF931F92CDB7DEB7182FFA
:1032A000998349DF8FE040DF9981892F3DDF812FAE
:1032B0003BDF80E039DF898340DF89810F90DF9138
:1032C000CF911F9108951F93CF93DF93182F60E242
:1032D00070E097DBC82FD0E061E270E0812F91DBD6
:1032E000DC2FCC279E01282BC901DF91CF911F91A4
:1032F0000895FF920F931F93CF93DF93F62EC0E0B4
:10330000D0E08F2DE0DF8C01009719F08F2DDBDFEF
:10331000EC01C017D107A9F7CE01DF91CF911F9122
:103320000F91FF9008951F93CF93DF93182F66E2BC
:1033300070E067DBC82FD0E067E270E0812F61DBCF
:10334000DC2FCC279E01282BC901DF91CF911F9143
:103350000895FF920F931F93CF93DF93F62EC0E053
:10336000D0E08F2DE0DF8C01009719F08F2DDBDF8F
:10337000EC01C017D107A9F7CE01DF91CF911F91C2
:103380000F91FF9008956F927F929F92AF92BF929C
:10339000CF92DF92EF92FF920F931F93CF93DF9321
:1033A0001F92CDB7DEB7D82E962E3A01590164E2AE
:1033B00070E0892D998325DBE82EF12C65E270E021
:1033C000892D1FDBFE2CEE24E82AE60CF71C970162
:1033D00037706D2C9981792E690C711C690C711CE8
:1033E000D301ED91FC91E20FF31FC901800F911FF2
:1033F0008130984098F0C12C48E0D42EC21AD30AEC
:10340000A601B501CF011CDFA8014C195D09B5016A
:103410006C0D7D1DF3018081918103C0A801B50170
:10342000CF010EDFE00EF11E4F2D64E270E0892D1A
:10343000F4DA4E2D65E270E0892D0F90DF91CF9187
:103440001F910F91FF90EF90DF90CF90BF90AF90C2
:103450009F907F906F90E1CA0F931F9389019A010B
:1034600040E050E090DF1F910F910895CF92DF92DE
:10347000EF92FF920F931F93CF93DF93EC017A01AA
:103480008B016C01C40ED51ECC15DD0579F053DE21
:103490008FE04ADE8D2F48DE8C2F46DE219680E0BD
:1034A00043DEF80181938F0148DEEECFC701DF9143
:1034B000CF911F910F91FF90EF90DF90CF900895E3
:1034C000AF92BF92CF92DF92EF92FF920F931F9332
:1034D000CF93DF931F921F92CDB7DEB75A834983F4
:1034E0005901E981FA81F7707C01E60EF11CE60EC4
:1034F000F11CD70118968D919C9119978E0F9F1FE3
:1035000098012E0F3F1F2130384090F0C12C68E009
:10351000D62ECE1ADF0AA601B501A8DFA8014C19E4
:103520005D09B5016C0D7D1DF7018085918502C097
:10353000A801B5010F900F90DF91CF911F910F91CE
:10354000FF90EF90DF90CF90BF90AF908FCF8F9292
:103550009F92AF92BF92CF92DF92EF92FF920F9322
:103560001F93CF93DF936C01962E5A017901802E21
:1035700068E270E0892D45DAC82FD0E069E270E09A
:10358000892D3FDADC2FCC27C82B87019501AE01AE
:10359000692DC60195DF811018C0CE0DDF1D4D2F9E
:1035A00068E270E0892D39DA4C2F69E270E0892DEC
:1035B000DF91CF911F910F91FF90EF90DF90CF900F
:1035C000BF90AF909F908F9028CADF91CF911F91AD
:1035D0000F91FF90EF90DF90CF90BF90AF909F90B2
:1035E0008F900895CF93C62F61E070E08C2F15DA8D
:1035F00061E070E08C2F05DA8111FACFCF91089548
:10360000CF93CFB7F89480917D05811116C061E00A
:1036100085E30E94030561E085E30E94CA048CB53E
:1036200080618CBD8CB580648CBD61E084E30E94B8
:10363000CA0461E083E30E94CA0480917D058F5F24
:1036400080937D05CFBFCF91089520917E0581E0C5
:10365000820F80937E05222349F081E090E09093D1
:10366000800580937F0520937E05089578940E94BD
:103670004601F89480917E05815080937E050895DF
:103680000F931F93CF93DF931F92CDB7DEB781E0E7
:1036900089830E9414040E944C0A00911C0210911C
:1036A0001D02F801118210820E94C5010E94100BB8
:1036B00021E0F80180819181892B09F020E02983A4
:1036C000789478948981882349F021E0F8018081F9
:1036D0009181892B09F020E02983F4CF0E94EC012D
:1036E000F89480E090E00F90DF91CF911F910F91BF
:1036F00008952FD008F481E0089557D088F09F579F
:1037000090F0B92F9927B751A0F0D1F0660F771F2D
:10371000881F991F1AF0BA95C9F712C0B13081F00D
:103720005ED0B1E008955BC0672F782F8827B85F1F
:1037300039F0B93FCCF3869577956795B395D9F76E
:103740003EF490958095709561957F4F8F4F9F4F78
:103750000895990F0008550FAA0BE0E8FEEF161622
:103760001706E807F907C0F012161306E407F50775
:1037700098F0621B730B840B950B39F40A2661F0E9
:10378000232B242B252B21F408950A2609F4A1408C
:10379000A6958FEF811D811D089557FD9058440F08
:1037A000551F59F05F3F71F04795880F97FB991FA0
:1037B00061F09F3F79F0879508951216130614065D
:1037C000551FF2CF4695F1DF08C0161617061806EA
:1037D000991FF1CF86957105610508940895E894C5
:1037E000BB2766277727CB0197F90895B2DF08F446
:1037F0008FEF0895A1E21A2EAA1BBB1BFD010DC07D
:10380000AA1FBB1FEE1FFF1FA217B307E407F50790
:1038100020F0A21BB30BE40BF50B661F771F881F6C
:10382000991F1A9469F760957095809590959B0102
:10383000AC01BD01CF010895EE0FFF1F0590F4917B
:10384000E02D19940790F691E02D1994F894FFCF8C
:1038500000008F058000010000000900000008172B
:10386000000000FFDEADBEEFFEED00C087050000EA
:103870000000A705FA083805510543058605000034
:103880000000930800000000BA0FE30FFC0F0410C3
:1038900020104210B61045101D100E114B11D00F04
:1038A000AB0FAE0FD80FB00F000000007911361229
:1038B0008F11000000001F1365131B137813BC1336
:1038C0003513D41347135B1362146213FF13A01351
:0638D0000013071317139B
:00000001FF
