:1000000013C1000007C2000036C2000065C2000034
:1000100094C20000C3C20000F2C2000021C300006D
:1000200050C3000032C1000030C100002EC10000EA
:100030002CC100000C94090A28C1000026C1000050
:1000400024C1000022C1000020C100001EC1000028
:100050001CC100001AC1000018C1000063C30000E9
:1000600014C10000F4C5000028C600000EC1000045
:100070000CC100000AC1000008C1000006C1000058
:1000800004C1000002C1000000C10000FEC0000069
:1000900080C60000B4C60000F8C00000F6C0000032
:1000A000F4C00000F2C00000F0C00000EEC000008C
:1000B000ECC00000EAC00000E8C00000E6C000009C
:1000C000E4C00000E2C000000C94090B04C700006B
:1000D00038C70000DAC00000A0C70000D4C7000085
:1000E000D4C00000AB04AE049D04A104A704E50441
:1000F000B204B604BC04C004C404CA04CE04D204CE
:10010000E504D804DC04E00400000A0B02090C0D2D
:100110000E080703040100000000000000000000BA
:1001200000000000000000000000000000000000CF
:10013000000000001211100000000000000000008C
:1001400000000000000000000000000000000102AC
:1001500010202008081020401020408002010201D9
:100160000804020101020408102040808040201091
:1001700008040201800402018040201008040201EA
:100180000804020101020408102040800102040852
:10019000102040800505050507050808080802022B
:1001A00002020A0A08080404040401010101010111
:1001B00001010303030303030303040707070C0CF4
:1001C0000C0C0C0C0C0C02020202060606060606BB
:1001D00006060B0B0B0B0B0B0B0B00002200250074
:1001E00028002B002E003100340002010000050120
:1001F00008010B0100002100240027002A002D0027
:100200003000330001010000040107010A0102006F
:1002100086062807CA076C080709F50AF30CFF0CC5
:10022000570DD20FDC0FA21111241FBECFEFD1E268
:10023000DEBFCDBF00E00CBF12E0A0E0B2E0E2E024
:10024000F0E300E00BBF02C007900D92AC35B107A0
:10025000D9F725E0ACE5B2E001C01D92AF37B20797
:10026000E1F712E0C8E2D2E000E006C022970109FF
:10027000FE010BBF0E94FB17C031D10780E00807C9
:10028000A9F70E9419170C94FF17BACE8091780530
:100290008F5F8A3018F4809378050895109278055E
:1002A000089521E030917805311120E0FC0121838F
:1002B0000895CF92DF92EF92FF92CF93DF9300D019
:1002C0001F92CDB7DEB7AE014F5F5F4F63E775E0BA
:1002D000809116020E94BA0A80917305809374057A
:1002E00090917D05911104C081E080937D0506C049
:1002F00090917E05913091F48630E8F082E0809311
:100300007E0580E090E0A0E8BFE380936F059093C6
:100310007005A0937105B09372050DC0863058F436
:1003200081E080937E0510926F0510927005109207
:10033000710510927205C0906F05D0907005E09025
:100340007105F090720520E030E040E853E4C70109
:10035000B6010E94521787FF0EC020E030E0A901CD
:10036000C701B6010E94CF1787FD07C0C701B601BC
:100370000E94561703C06FEF01C060E080910A022F
:100380005ED36091740580910E0259D30F900F9047
:100390000F900F90DF91CF91FF90EF90DF90CF9073
:1003A0000895009719F0019711F008956FCF81CF4C
:1003B00010927505109276051092770510927805C7
:1003C00086E0EFE6F5E0DF01982F1D929A95E9F7B8
:1003D000E9E7F5E0DF011D928A95E9F74091120205
:1003E00050911302609114027091150280911602CF
:1003F00090E00E94690A61E080910A02E7D261E020
:1004000080910E02E3D210927D0510927E05089530
:10041000089508951F920F920FB60F9211240BB6F4
:100420000F922F933F934F935F936F937F938F938D
:100430009F93AF93BF93EF93FF938091600290914E
:100440006102892B29F0E0916002F0916102199517
:10045000FF91EF91BF91AF919F918F917F916F919C
:100460005F914F913F912F910F900BBE0F900FBE58
:100470000F901F9018951F920F920FB60F92112494
:100480000BB60F922F933F934F935F936F937F938E
:100490008F939F93AF93BF93EF93FF9380916202EB
:1004A00090916302892B29F0E0916202F09163023E
:1004B0001995FF91EF91BF91AF919F918F917F918E
:1004C0006F915F914F913F912F910F900BBE0F90C5
:1004D0000FBE0F901F9018951F920F920FB60F929C
:1004E00011240BB60F922F933F934F935F936F930B
:1004F0007F938F939F93AF93BF93EF93FF938091DD
:10050000640290916502892B29F0E0916402F091D8
:1005100065021995FF91EF91BF91AF919F918F91D6
:100520007F916F915F914F913F912F910F900BBEF3
:100530000F900FBE0F901F9018951F920F920FB63D
:100540000F9211240BB60F922F933F934F935F930B
:100550006F937F938F939F93AF93BF93EF93FF938B
:100560008091660290916702892B29F0E0916602E2
:10057000F09167021995FF91EF91BF91AF919F9113
:100580008F917F916F915F914F913F912F910F903C
:100590000BBE0F900FBE0F901F9018951F920F92D9
:1005A0000FB60F9211240BB60F922F933F934F93D8
:1005B0005F936F937F938F939F93AF93BF93EF93CB
:1005C000FF9380915C0290915D02892B29F0E0916C
:1005D0005C02F0915D021995FF91EF91BF91AF918F
:1005E0009F918F917F916F915F914F913F912F914B
:1005F0000F900BBE0F900FBE0F901F9018951F927B
:100600000F920FB60F9211240BB60F922F933F93B8
:100610004F935F936F937F938F939F93AF93BF930A
:10062000EF93FF9380915E0290915F02892B29F0F6
:10063000E0915E02F0915F021995FF91EF91BF91F9
:10064000AF919F918F917F916F915F914F913F916A
:100650002F910F900BBE0F900FBE0F901F9018950B
:100660001F920F920FB60F9211240BB60F922F9379
:100670003F934F935F936F937F938F939F93AF932A
:10068000BF93EF93FF938091680290916902892B49
:1006900029F0E0916802F09169021995FF91EF91BC
:1006A000BF91AF919F918F917F916F915F914F918A
:1006B0003F912F910F900BBE0F900FBE0F901F9088
:1006C00018951F920F920FB60F9211240BB60F922E
:1006D0002F933F934F935F936F937F938F939F934A
:1006E000AF93BF93EF93FF9380916A0290916B0257
:1006F000892B29F0E0916A02F0916B021995FF9124
:10070000EF91BF91AF919F918F917F916F915F9189
:100710004F913F912F910F900BBE0F900FBE0F90F6
:100720001F9018951F920F920FB60F9211242F93BE
:100730003F938F939F93AF93BF9380916D0290915E
:100740006E02A0916F02B091700230916C0223E0B2
:10075000230F2D3720F40196A11DB11D05C026E8F9
:10076000230F0296A11DB11D20936C0280936D0290
:1007700090936E02A0936F02B09370028091710209
:1007800090917202A0917302B09174020196A11D22
:10079000B11D8093710290937202A0937302B09383
:1007A0007402BF91AF919F918F913F912F910F90C4
:1007B0000FBE0F901F9018952FB7F89460916D029F
:1007C00070916E0280916F02909170022FBF089518
:1007D0003FB7F8948091710290917202A0917302D8
:1007E000B091740226B5A89B05C02F3F19F0019661
:1007F000A11DB11D3FBF6627782F892F9A2F620F49
:10080000711D811D911D42E0660F771F881F991F82
:100810004A95D1F70895CF92DF92EF92FF92CF934E
:10082000DF936B017C01D4DFEB01C114D104E1043F
:10083000F10479F0EEDDCCDF6C1B7D0B683E73407C
:10084000A0F381E0C81AD108E108F108C851DC4FD3
:10085000ECCFDF91CF91FF90EF90DF90CF90089594
:10086000789484B5826084BD84B5816084BD85B58B
:10087000826085BD85B5816085BDEEE6F0E0808152
:1008800081608083E1E8F0E0108280818260808373
:10089000808181608083E0E8F0E0808181608083F6
:1008A000E1EBF0E0808184608083E0EBF0E0808128
:1008B00081608083E1E9F0E08081826080838081D3
:1008C00081608083E0E9F0E0808181608083E1EAFB
:1008D000F0E0808182608083808181608083E0EAB3
:1008E000F0E0808181608083E1E2F1E080818260DC
:1008F0008083808181608083E0E2F1E0808181609B
:100900008083EAE7F0E08081846080838081826078
:100910008083808181608083808180688083109261
:10092000C100089590E0FC013197E231F10508F033
:100930004CC0EE58FF4F0C94F517809180008F77D4
:1009400003C0809180008F7D809380000895809106
:100950008000877FF9CF84B58F7702C084B58F7D03
:1009600084BD08958091B0008F7703C08091B0005E
:100970008F7D8093B0000895809190008F7707C09D
:10098000809190008F7D03C080919000877F80933D
:10099000900008958091A0008F7707C08091A000FB
:1009A0008F7D03C08091A000877F8093A000089571
:1009B000809120018F7707C0809120018F7D03C037
:1009C00080912001877F809320010895CF93DF934A
:1009D00090E0FC01E25BFE4F2491FC01EC56FE4FDF
:1009E0008491882349F190E0880F991FFC01EC5015
:1009F000FE4FA591B49186529E4FFC01C591D491B2
:100A00009FB7611108C0F8948C91209582238C9334
:100A1000888182230AC0623051F4F8948C91322F7D
:100A2000309583238C938881822B888304C0F8942B
:100A30008C91822B8C939FBFDF91CF9108950F9360
:100A40001F93CF93DF931F92CDB7DEB7282F30E0EF
:100A5000F901E85FFE4F8491F901E25BFE4F1491CA
:100A6000F901EC56FE4F04910023C1F0882319F0E0
:100A7000698358DF6981E02FF0E0EE0FFF1FE65237
:100A8000FE4FA591B4919FB7F8948C91611103C06A
:100A90001095812301C0812B8C939FBF0F90DF9114
:100AA000CF911F910F910895FC01818D228D90E0CF
:100AB000805C9F4F821B91098F7399270895FC01D9
:100AC000918D828D981731F0828DE80FF11D858D03
:100AD00090E008958FEF9FEF0895FC01918D828D36
:100AE000981761F0828DDF01A80FB11D5D968C9182
:100AF000928D9F5F9F73928F90E008958FEF9FEF8D
:100B00000895FC01848DDF01A80FB11DA35ABF4FCA
:100B10002C91848D90E001968F739927848FA689FC
:100B2000B7892C93A089B1898C9180648C93938D23
:100B3000848D981306C00288F389E02D80818F7D13
:100B400080830895CF93DF93EC01888D8823C1F0D3
:100B5000EA89FB89808185FD05C0A889B9898C91C6
:100B600086FD0EC00FB607FCF5CF808185FFF2CF62
:100B7000A889B9898C9185FFEDCFCE01C2DFE8CF7E
:100B8000DF91CF910895CF92DF92FF920F931F9341
:100B9000CF93DF931F92CDB7DEB76C01DC015B967C
:100BA0009C915B975C968C915C97981307C05096CC
:100BB000ED91FC915197808185FD31C0F601038D47
:100BC00010E00F5F1F4F0F731127F02EF601848D79
:100BD000F81210C00FB607FCF9CFD6015096ED9170
:100BE000FC915197808185FFF1CFC601698389DF30
:100BF0006981ECCF838DE80FF11DE35AFF4F6083CD
:100C0000D6015B960C935B975296ED91FC915397AE
:100C100080818062808381E058968C930DC0D601DC
:100C20005696ED91FC91579760835096ED91FC910B
:100C3000519780818064808381E090E00F90DF9104
:100C4000CF911F910F91FF90DF90CF9008951F9249
:100C50000F920FB60F9211240BB60F922F938F9312
:100C60009F93EF93FF93E0918502F091860280813C
:100C7000E0918B02F0918C0282FD12C090818091F4
:100C80008E028F5F8F7320918F02821751F0E09157
:100C90008E02F0E0EB58FD4F958F80938E0201C0DD
:100CA0008081FF91EF919F918F912F910F900BBEBB
:100CB0000F900FBE0F901F9018951F920F920FB6B6
:100CC0000F9211240BB60F922F933F934F935F9384
:100CD0006F937F938F939F93AF93BF93EF93FF9304
:100CE00085E792E00EDFFF91EF91BF91AF919F9169
:100CF0008F917F916F915F914F913F912F910F90C5
:100D00000BBE0F900FBE0F901F9018951092780297
:100D10001092770288EE93E0A0E0B0E08093790231
:100D200090937A02A0937B02B0937C0286E292E0D9
:100D3000909376028093750285EC90E09093820206
:100D40008093810284EC90E09093840280938302EC
:100D500080EC90E0909386028093850281EC90E095
:100D6000909388028093870282EC90E090938A02AD
:100D70008093890286EC90E090938C0280938B02A2
:100D800010928E0210928F02109290021092910295
:100D900008951F920F920FB60F9211240BB60F9267
:100DA0002F938F939F93EF93FF93E0912203F09102
:100DB00023038081E0912803F091290382FD12C072
:100DC000908180912B038F5F8F7320912C0382176A
:100DD00051F0E0912B03F0E0EE5EFC4F958F809395
:100DE0002B0301C08081FF91EF919F918F912F91F3
:100DF0000F900BBE0F900FBE0F901F9018951F9273
:100E00000F920FB60F9211240BB60F922F933F93B0
:100E10004F935F936F937F938F939F93AF93BF9302
:100E2000EF93FF9382E193E06CDEFF91EF91BF912E
:100E3000AF919F918F917F916F915F914F913F9172
:100E40002F910F900BBE0F900FBE0F901F90189513
:100E5000109215031092140388EE93E0A0E0B0E026
:100E60008093160390931703A0931803B09319036C
:100E700086E292E090931303809312038DEC90E04E
:100E800090931F0380931E038CEC90E090932103BA
:100E90008093200388EC90E09093230380932203B7
:100EA00089EC90E090932503809324038AEC90E0F2
:100EB00090932703809326038EEC90E09093290370
:100EC0008093280310922B0310922C0310922D0371
:100ED00010922E0308951F920F920FB60F921124B5
:100EE0000BB60F922F938F939F93EF93FF93E09105
:100EF000BF03F091C0038081E091C503F091C60368
:100F000082FD12C090818091C8038F5F8F73209102
:100F1000C903821751F0E091C803F0E0E155FC4F9E
:100F2000958F8093C80301C08081FF91EF919F91BD
:100F30008F912F910F900BBE0F900FBE0F901F90AF
:100F400018951F920F920FB60F9211240BB60F92A5
:100F50002F933F934F935F936F937F938F939F93C1
:100F6000AF93BF93EF93FF938FEA93E0CADDFF91B6
:100F7000EF91BF91AF919F918F917F916F915F9111
:100F80004F913F912F910F900BBE0F900FBE0F907E
:100F90001F9018951092B2031092B10388EE93E05F
:100FA000A0E0B0E08093B3039093B403A093B503A3
:100FB000B093B60386E292E09093B0038093AF03C0
:100FC00085ED90E09093BC038093BB0384ED90E0AB
:100FD0009093BE038093BD0380ED90E09093C00397
:100FE0008093BF0381ED90E09093C2038093C1038F
:100FF00082ED90E09093C4038093C30386ED90E06C
:101000009093C6038093C5031092C8031092C9033E
:101010001092CA031092CB0308951F920F920FB63D
:101020000F9211240BB60F922F938F939F93EF93F0
:10103000FF93E0915C04F0915D048081E091620493
:10104000F091630482FD12C09081809165048F5FEE
:101050008F7320916604821751F0E0916504F0E0EF
:10106000E45BFB4F958F8093650401C08081FF9105
:10107000EF919F918F912F910F900BBE0F900FBE0C
:101080000F901F9018951F920F920FB60F92112478
:101090000BB60F922F933F934F935F936F937F9372
:1010A0008F939F93AF93BF93EF93FF938CE494E060
:1010B00028DDFF91EF91BF91AF919F918F917F912B
:1010C0006F915F914F913F912F910F900BBE0F90B9
:1010D0000FBE0F901F90189510924F0410924E045F
:1010E00088EE93E0A0E0B0E0809350049093510428
:1010F000A0935204B093530486E292E090934D047F
:1011000080934C0485E391E09093590480935804B4
:1011100084E391E090935B0480935A0480E391E030
:1011200090935D0480935C0481E391E090935F046D
:1011300080935E0482E391E0909361048093600465
:1011400086E391E0909363048093620410926504B7
:101150001092660410926704109268040895AF928A
:10116000BF92CF92DF92EF92FF920F931F93CF9394
:10117000DF936C017B01C0E0D0E000E010E0F601FD
:10118000EC0FFD1F4AE050E06281C701F8D05C011E
:101190006EE2C70189D08A0D9B1D080F191F219689
:1011A000C330D10561F74AE050E0F6016581C7011F
:1011B000E6D0800F911FDF91CF911F910F91FF908B
:1011C000EF90DF90CF90BF90AF90089526E332E08C
:1011D000FC013183208312821382148215820895C8
:1011E0000F93FC0186E392E09183808362834383C3
:1011F000248305830F910895FB0140815181628111
:101200007381FC014283538364837583089586E36D
:1012100092E09093EA048093E9041092EB04109218
:10122000EC041092ED041092EE040895CF92DF9238
:10123000EF92FF920F931F93CF93DF936C017A018C
:10124000EB01E60EF71E00E010E0CE15DF0561F0C1
:101250006991D601ED91FC910190F081E02DC601DC
:101260001995080F191FF1CFC801DF91CF911F9178
:101270000F91FF90EF90DF90CF9008956115710569
:1012800081F0DB010D900020E9F7AD0141505109DB
:10129000461B570BDC01ED91FC910280F381E02DA0
:1012A000199480E090E00895DC01ED91FC910190AB
:1012B000F081E02D19948F929F92AF92BF92CF92BE
:1012C000DF92EF92FF920F931F93CF93DF93CDB7EF
:1012D000DEB7A1970FB6F894DEBF0FBECDBF7C017D
:1012E000C42EE52FCB01D22E19A221E02D1510F02E
:1012F0002AE0D22E8E010F5D1F4F8D2C912CA12C38
:10130000B12C6C2D7E2FA50194010E94D3178C2D3A
:10131000D29E80191124015011098A3014F4805D85
:1013200001C0895CF8018083211531054105510513
:1013300021F0C22EE32FCA01E4CFB801C7019EDF1E
:10134000A1960FB6F894DEBF0FBECDBFDF91CF914F
:101350001F910F91FF90EF90DF90CF90BF90AF90D3
:101360009F908F9008952115310541F4DC01ED9196
:10137000FC910190F081E02D642F19949CCF9A018B
:10138000462F50E060E070E0EECF8230A9F028F404
:10139000882349F0813051F00895843009F1E8F054
:1013A000853009F1089510926E00089580916F00C4
:1013B0008D7F80936F000895809170008D7F809362
:1013C000700081E08093B0008091B100887F8460DC
:1013D0008093B1001092B3000895109271000895A7
:1013E000109272000895109273000895CF93C82F41
:1013F000809117028C1307C0EEE0F2E084919FEF1A
:101400009093170201C08FEFC0DF60E08C2FCF9167
:1014100016CB1F920F920FB60F9211240BB60F929C
:101420002F933F934F935F936F937F938F939F93EC
:10143000AF93BF93EF93FF938091F2049091F304E5
:10144000A091F404B091F504892B8A2B8B2B51F1D8
:101450009091EF04E091F004F091F10480818927EC
:1014600080838091F2049091F304A091F404B091F0
:10147000F504181619061A061B06BCF48091F2042E
:101480009091F304A091F404B091F5040197A1099F
:10149000B1098093F2049093F304A093F404B09301
:1014A000F50403C080911702A1DFFF91EF91BF9176
:1014B000AF919F918F917F916F915F914F913F91EC
:1014C0002F910F900BBE0F900FBE0F901F9018958D
:1014D00008951F93CF93DF9300D000D0CDB7DEB730
:1014E000182F2091F6043091F704232B11F526E3F1
:1014F00032E03A8329834091FA045091FB046091D1
:10150000FC047091FD044B835C836D837E83AE018C
:101510004F5F5F4F6AE172E08FE195E017D2209153
:10152000F6043091F7042F5F3F4F3093F704209378
:10153000F604E12FF0E02BE1129FC001112482504C
:101540009B4FDC012D913C91EE0FFF1FE85EFD4F9C
:1015500060817181D9011C96ED91FC911D971995BF
:1015600026960FB6F894DEBF0FBECDBFDF91CF91A8
:101570001F910895EF92FF920F931F93CF93DF93E4
:101580008B017A014BE1849FE0011124C250DB4FB3
:10159000E881F9810688F789E02DCE011995892B1C
:1015A000C1F0E881F9810680F781E02DCE0119951F
:1015B000F801808301E010E020E030E0019619F4AA
:1015C00000E010E09801F701008311832283338348
:1015D00005C0F7011082118212821382DF91CF9130
:1015E0001F910F91FF90EF9008950F9300E020E07E
:1015F00040E060E089E195E0F3DD8EEF94E033D6E2
:1016000006EC2EE648EA60EC88EF94E0E9DD0F9105
:1016100008951F920F920FB60F9211240BB60F92DE
:101620002F933F934F935F936F937F938F939F93EA
:10163000AF93BF93EF93FF9386E997EE90932501C5
:10164000809324010E94BF16FF91EF91BF91AF914B
:101650009F918F917F916F915F914F913F912F91CA
:101660000F900BBE0F900FBE0F901F90189586E93C
:1016700097EE9093250180932401A3E7B0E08C912D
:101680008E7F8C93E0E2F1E080818C7F8083E1E2C9
:10169000F1E08081877E8083808184608083808187
:1016A0008C7F80838C9181608C9308952091670555
:1016B000222399F03FB7F89420916705213059F41F
:1016C0002DB3209365054DB3209166052095242305
:1016D0002DBB3FBF02C0309365058CBD9DBD0895F5
:1016E00080916705882361F09FB7F8942091670582
:1016F00080916505213019F48DBB9FBF08958FBF80
:10170000089544E050E0BC0181E090E00C94C414E2
:1017100044E050E0BC0185E090E00C94C41444E047
:1017200050E0BC018FE090E00C94C4148F929F9223
:10173000AF92BF92CF92DF92EF92FF920F931F93DF
:10174000CF93DF931F921F92CDB7DEB74C016A0192
:10175000590185E595E069837A830E94601480E5EC
:1017600090E0A4DF46E050E069817A8189E090E072
:101770000E94C414C6010296D2DFC8010296C1DFDE
:10178000C7010296C5DFACDFF50142815381648158
:101790007581F40142835383648375830F900F90A6
:1017A000DF91CF911F910F91FF90EF90DF90CF903D
:1017B000BF90AF909F908F9008956F927F928F927D
:1017C0009F92AF92BF92CF92DF92EF92FF920F93D0
:1017D0001F93CF93DF93CDB7DEB76E970FB6F89414
:1017E000DEBF0FBECDBF6C015B017A01490138013C
:1017F00000E02FEF4FEF6FEFCE014996F1DC26E3CB
:1018000032E03A8329838B8D9C8DAD8DBE8D8B8389
:101810009C83AD83BE8338872F83F30182819381BC
:10182000A481B58189879A87AB87BC873E872D873E
:10183000F40182819381A481B5818F87988BA98BD4
:10184000BA8B3C8B2B8BF70142815381648175816C
:101850004D8B5E8B6F8B788FCE0101967C018E0154
:10186000095F1F4F9E01235F3F4FAE014D5E5F4FEB
:10187000B501C6015BDF6E960FB6F894DEBF0FBEF2
:10188000CDBFDF91CF911F910F91FF90EF90DF902F
:10189000CF90BF90AF909F908F907F906F90089562
:1018A000CF92DF92EF92FF920F931F93CF93DF932C
:1018B000CDB7DEB768970FB6F894DEBF0FBECDBFC9
:1018C0006B017901DA0112964D915D916D917C91D8
:1018D00015974D8B5E8B6F8B788FA6E3B2E0BA8342
:1018E000A98321E0288F0D891E892F89388D0B83CC
:1018F0001C832D833E83B887AF83F7010281138158
:101900002481358109871A872B873C87BE87AD875D
:101910004F87588B698B7A8B8E010F5F1F4F9E010B
:10192000295F3F4FAE01435F5F4FB60146DF6896C8
:101930000FB6F894DEBF0FBECDBFDF91CF911F91E0
:101940000F91FF90EF90DF90CF9008950F931F932A
:10195000CF93DF93CDB7DEB762970FB6F894DEBFB3
:101960000FBECDBFDB01FA014281538164817581D5
:101970004F87588B698B7A8BE6E3F2E0FA83E98331
:1019800021E02A8B0F85188929893A890B831C83CA
:101990002D833E83F887EF8349875A876B877C873F
:1019A0009E012F5F3F4FAE01495F5F4FBD0178DF62
:1019B00062960FB6F894DEBF0FBECDBFDF91CF9118
:1019C0001F910F91089526E332E0FC0131832083BB
:1019D000FB014281538164817581FC014283538301
:1019E0006483758308950F9300E020E040E060E099
:1019F0008FE295E0F5DB8FE195E00F91E7CB0F9358
:101A000000E020E040E060E085E395E0E9DB0F9155
:101A10000895FB014281538164817581FC014283F9
:101A2000538364837583178216820895CF93FB01D5
:101A300081918111FDCFFB0180E090E020E030E05A
:101A4000CAE06191662309F12430310564F56E32F4
:101A500071F48F3F910509F034F5DA01A20FB31F3D
:101A600012968C932F5F3F4F80E090E0EACFDC012D
:101A7000CA9FC001CB9F900D1124772767FD7095F9
:101A800060537109860F971FDCCF8F3F910509F0D6
:101A900054F4243031053CF4FA01E20FF31F828341
:101AA00081E090E002C080E090E0CF9108950F9334
:101AB00000E020E040E060E08BE395E091DB0F91F7
:101AC0000895AF92BF92CF92DF92EF92FF920F9361
:101AD0001F93CF93DF9300D0CDB7DEB76C017B01AE
:101AE0000E94DC03F601778366838601085F1F4F3F
:101AF000B6016A5F7F4F42E050E0C801CCD281E07E
:101B000090E09A83898342E050E0BE016F5F7F4F8F
:101B1000C801C1D280E091E09A83898342E050E01D
:101B2000BE016F5F7F4FC801B6D21A82198242E0B0
:101B300050E0BE016F5F7F4FC801ADD242E050E080
:101B4000BE016F5F7F4FC801A6D242E050E0BE01E8
:101B50006F5F7F4FC8019FD26701F60180818823A4
:101B600001F1F7016F018191811113C05601AE1887
:101B7000BF081A141B0484F4AB8241E050E0BE019C
:101B80006D5F7F4FC80187D2A501B701C80183D21D
:101B900003C08E3239F7EACF7601FFEFEF1AFF0A62
:101BA000DCCF1B8241E050E0BE016D5F7F4FC8017A
:101BB00072D2E12CFF24F394FA82E98242E050E0F1
:101BC000BE016F5F7F4FC80166D2FA82E98242E0B0
:101BD00050E0BE016F5F7F4FC8015DD281E090E0B1
:101BE0000F900F900F90DF91CF911F910F91FF9069
:101BF000EF90DF90CF90BF90AF9008954F925F929B
:101C00006F927F928F929F92AF92BF92CF92DF920C
:101C1000EF92FF920F931F93CF93DF93CDB7DEB771
:101C200063970FB6F894DEBF0FBECDBF7C015B019A
:101C30006A010E94DC032B013C018701085F1F4FF2
:101C40004501A12CB12CC801C0D21816190694F078
:101C50000E94DC03641975098609970986169706A0
:101C6000A806B906D0F062E370E080E090E00E9440
:101C70000B04E9CFF7014281538164817581818D25
:101C8000928DA38DB48D481759076A077B0741F4DD
:101C9000858D968DC59721F406C08FEF9FEFE0C02C
:101CA0008EEF9FEFDDC0C801ACD10C970CF4D6C00D
:101CB0004CE050E0BE016F5F7F4FC80127D28B819F
:101CC0009C819827892798279A8B898BF7014681D1
:101CD000578129813A814217530711F497FD05C0B6
:101CE000C801A9D18CEF9FEFBBC08F709270892B78
:101CF00029F0C801A0D18BEF9FEFB2C0AF80B884AC
:101D0000BA24AB24BA24A114B10419F0E12CF12CAB
:101D10001DC0C80190D18AEF9FEFA2C041E050E002
:101D2000BE01635F7F4FC801F1D18D85811117C05E
:101D30008D858111F3CFC801C1D1C801BFD1C801C0
:101D4000BDD1C801BBD1FFEFEF1AFF0A8D819E8183
:101D5000982789279827E816F90600F309C08D858A
:101D60009FEF980F9D87882319F3C801A7D1F7CF5C
:101D7000E12CF12C41E050E0BE016D5E7F4FC801C7
:101D8000C5D18B89982F907C59F4882361F08B8979
:101D90009FEF980F9B8B882331F0C8018FD1F7CF2D
:101DA000C8018CD11B8A8B898111E4CF42E050E0BD
:101DB000BE01615F7F4FC801A9D142E050E0BE0182
:101DC000635F7F4FC801A2D1C80178D1C80176D125
:101DD000C80174D1C80172D142E050E0BE016F5E0B
:101DE0007F4FC80193D18F8598898115914029F43F
:101DF0008D859E858115914019F0812C912C14C000
:101E000089899A898115944029F0C80114D187EFF6
:101E10009FEF26C0B6016E5F7F4F44E050E0C801DF
:101E200075D181E090E01CC089899A89982789271B
:101E300098278816990630F4C80140D12FEF821AEE
:101E4000920AF2CF8FEFE81AF80AEA14FB0409F0BD
:101E500091CFC801F0D086EF9FEF02C08DEF9FEFCA
:101E600063960FB6F894DEBF0FBECDBFDF91CF9162
:101E70001F910F91FF90EF90DF90CF90BF90AF90A8
:101E80009F908F907F906F905F904F9008958F926A
:101E90009F92AF92BF92CF92DF92EF92FF920F93F9
:101EA0001F93CF93DF9300D000D0CDB7DEB78C0166
:101EB0005B016A01BBDD4C01009709F057C0F801D6
:101EC000428153816481758180913D0590913E05E9
:101ED000A0913F05B0914005481759076A077B0755
:101EE00009F448C00E94DC037801F8E0EF0EF11C11
:101EF0006F7077277C5FC7013DD1813009F03EC00C
:101F000086E392E09A838983F80182819381A48198
:101F1000B5818B839C83AD83BE8345E350E0BE01D6
:101F20006F5F7F4FC701ADD0892B19F4812C912CA5
:101F30001AC0B501C801C5DD892BC1F3C701A8D0FE
:101F4000892BA1F333E0A32EB12CA60168E873E13D
:101F5000C80154DE4C01F1E0AF1AB10821F08F3F07
:101F60002FEF920791F3C70178D008C0882483949B
:101F7000912C04C09EEF892E99249A94C401269630
:101F80000FB6F894DEBF0FBECDBFDF91CF911F918A
:101F90000F91FF90EF90DF90CF90BF90AF909F9008
:101FA0008F9008950F9300E020E040E060E081E42E
:101FB00095E016D90F9108950F9300E020E040E0DE
:101FC00060E087E495E00CD90F910895DC01ED9174
:101FD000FC91008CF18DE02D199426E332E0FC0198
:101FE00031832083FB014189528963897489FC0113
:101FF00042835383648375830895FC0185899689A0
:102000000895FC01818D928D0895CF93DF931F92E7
:10201000CDB7DEB76983DC01ED91FC910280F381DD
:10202000E02D41E050E0BE016F5F7F4F19950F90AA
:10203000DF91CF910895CF93DF93EC01898D9A8D35
:10204000892B41F0E881F9810680F781E02DCE01EE
:102050001995F4CFDF91CF910895CF93DF93EC01E1
:102060008C85843059F00FD2EC85F0E0EE0FFF1F25
:10207000E95DFA4F1182108284E08C87DF91CF9165
:102080000895FC01108E178A6E5F7F4F848560C3B0
:10209000FC018485A1C3CF93DF93EC019A018F8962
:1020A000988DAB01BC018C850FD32F89388D280FFB
:1020B000391F388F2F8BDF91CF9108950F931F9386
:1020C000CF93DF931F92CDB7DEB78C01FC01818DDA
:1020D000928D892B51F041E050E0BE016F5F7F4F40
:1020E000848545D2181619061CF08FEF9FEF08C0A3
:1020F000F801818D928D0197928F818F898190E077
:102100000F90DF91CF911F910F910895CF93DF939F
:10211000EC01898D9A8D009719F48FEF9FEF0FC016
:102120004817590708F0AC018C8521D218161906FA
:10213000A4F7298D3A8D281B390B3A8F298FDF910F
:10214000CF910895CF93DF931F92CDB7DEB7FC01F7
:10215000218D328D232B41F0BE016F5F7F4F84852F
:1021600087D2898190E002C08FEF9FEF0F90DF91BF
:10217000CF910895FF920F931F93CF93DF93EC01BC
:102180008B018C858430D1F4F12C8F2D59D18111A4
:1021900002C0FC8606C08831E1F3F39484E0F812B3
:1021A000F4CF8C85843051F01E870D871A8E198EDE
:1021B00020E0A80162E08DD181E001C080E0DF91E4
:1021C000CF911F910F91FF9008950F931F93CF937D
:1021D000DF93CDB7DEB728970FB6F894DEBF0FBEFA
:1021E000CDBF8C01DC01ED91FC910284F385E02DE3
:1021F0001995F801848515D2181619063CF548E0A2
:1022000050E0BE016F5F7F4FD8011C968C91AFD11B
:1022100018161906ECF4BE016F5F7F4FC8010F96C8
:102220000E94FC088D8190E0982F88272E81820FD4
:10223000911DF801968B858B8F8190E0982F8827D0
:102240002885820F911D928F818F02C080E090E0DF
:1022500028960FB6F894DEBF0FBECDBFDF91CF91A9
:102260001F910F910895FC011382128248EE53E0F2
:1022700060E070E044835583668377838CE392E06B
:102280009183808384E08487CF010F960C94E608C5
:10229000CF92DF92EF92FF920F931F93CF93DF9332
:1022A000CDB7DEB7AF970FB6F894DEBF0FBECDBF88
:1022B0007C018B016A01CE0101960E94E608CE01E5
:1022C0000996D1DFCE018A960E94E6086FE175E09B
:1022D000CE01849678DBBE016C5D7F4FCE01019606
:1022E00098DBAE01465D5F4FB801CE010196CFDDB0
:1022F00081309105C1F4D701ED91FC910088F189FD
:10230000E02D86E392E09DA38CA30CA51DA52EA530
:102310003FA50EA31FA328A739A7A601BE016C5D88
:102320007F4FC7011995AF960FB6F894DEBF0FBE69
:10233000CDBFDF91CF911F910F91FF90EF90DF9074
:10234000CF9008950F9300E020E040E060E08DE43E
:1023500095E00E94F0080F910895CF92DF92EF92DE
:10236000FF920F9330E0C12CF2E1DF2EFAE7EF2E5F
:10237000F12C4C155D056E057F0540F4F694E7944D
:10238000D794C7943F5F3630A1F737E041E0432749
:10239000211102C050E701C050E5242F30E03595EF
:1023A000279523700C70202B252BFC012083417076
:1023B00041830F91FF90EF90DF90CF90089590E0D0
:1023C000982F882744E050E0845F9B4FDDC2282F80
:1023D00030E02C5F3F4F922F8827860F971FFDC25A
:1023E00062E070E0F4CFFB01282F30E02C5F3F4F1C
:1023F000922F8827642F8E0F9F1F45C2CF93DF93A4
:10240000C82FD62F472F64E070E0EDDF4D2F65E039
:1024100070E08C2FDF91CF91E6CF462F62E070E025
:10242000E2CFCF93DF93C82FD62F472F60E170E024
:10243000DADF4D2F61E170E08C2FDF91CF91D3CFA8
:102440000F931F93CF93DF9300D0CDB7DEB7182F34
:1024500000E021E040E059E06DE370E0CE0101963C
:102460007CDF89819A8122D963E070E0812FAFDF20
:102470008B8336D98B810F900F900F90DF91CF9186
:102480001F910F9108950F931F93CF93DF931F9286
:102490001F92CDB7DEB7182F00E021E040E059E0F1
:1024A0006DE370E0CE01019658DF89819A81FED8F4
:1024B00040E150E0612F85E595E02ED46FEF812F4C
:1024C000ACDF0ED90F900F90DF91CF911F910F913C
:1024D0000895CF92DF92EF92FF920F931F93CF93C5
:1024E000DF931F921F92CDB7DEB7182FD62E7A0139
:1024F000C22E8FEF860F853070F5812FC4DF00E08C
:1025000021E040E059E06DE370E0CE01019625DF67
:1025100089819A81CBD84D2D4C2960E070E0812FC4
:1025200062DFE114F10411F0B7010AC060915305B4
:10253000709154056F5F7F4F7093540560935305FE
:10254000812F5CDF41E050E0612F85E595E0E4D329
:10255000C7D881E001C080E00F900F90DF91CF914C
:102560001F910F91FF90EF90DF90CF900895AF9261
:10257000BF92CF92DF92EF92FF920F931F93CF9370
:10258000DF931F921F92CDB7DEB7182F5B016A0150
:1025900000E021E040E059E06DE370E0CE010196FB
:1025A000DCDE89819A8182D8612F85E595E075D23C
:1025B0007C01009799F463E070E0812F08DF84319B
:1025C00009F18823F9F021E030E08C3111F420E0AA
:1025D00030E0EE24FF24E21AF30A14C0C816D9062C
:1025E0000CF476011E141F046CF400E09701A501A1
:1025F000612F85E595E045D340E450E0612F85E506
:1026000095E08AD36DD8C7010F900F90DF91CF91DD
:102610001F910F91FF90EF90DF90CF90BF90AF9000
:1026200008950F931F93CF93DF9300D01F92CDB7E0
:10263000DEB7182F00E021E040E059E06DE370E0E4
:10264000CE0101968ADE89819A8130D8612F85E595
:1026500095E023D28B839C8343D88B819C810F9000
:102660000F900F900F90DF91CF911F910F910895D0
:10267000EF92FF920F931F93CF93DF931F921F92BE
:10268000CDB7DEB7182F7B0100E021E040E059E034
:102690006DE370E0CE01019660DE89819A8106D8F3
:1026A00001E021E030E0A701612F85E595E0E9D266
:1026B00017D881E090E00F900F90DF91CF911F919C
:1026C0000F91FF90EF9008959F92AF92BF92CF929B
:1026D000DF92EF92FF920F931F93CF93DF931F929E
:1026E0001F92CDB7DEB7982E6B015A01790100E039
:1026F00021E040E059E06DE370E0CE0101962DDE6F
:1027000089819A810E94560B692D85E595E095D1C6
:102710008E159F0528F4692D85E595E08ED17C0105
:1027200087019501A601692D85E595E0D0D10E942C
:10273000700BC7010F900F90DF91CF911F910F91F8
:10274000FF90EF90DF90CF90BF90AF909F90089553
:10275000CF92DF92EF92FF920F931F93CF93DF936D
:102760001F921F92CDB7DEB7182F7B016A01FB01C4
:102770008081811109C08181811106C0828181110E
:1027800003C083818823D9F0C114D104C1F000E0D3
:1027900021E040E059E06DE370E0CE010196DDDD1F
:1027A00089819A810E94560BB701812F08DEB601FC
:1027B000812F37DE0E94700B81E090E002C080E044
:1027C00090E00F900F90DF91CF911F910F91FF90AC
:1027D000EF90DF90CF9008950F931F93CF93DF93E7
:1027E0001F921F92CDB7DEB7182F00E021E040E026
:1027F00059E06DE370E0CE010196AFDD89819A81E9
:102800000E94560B40E250E0612F85E595E084D2AE
:10281000812FE6DD84FD1EC0812FE2DD83FF08C02D
:1028200068E1812FFADD0E94700B80E090E019C012
:102830000E94700B0E94090200E021E040E059E094
:102840006DE370E0CE01019688DD89819A810E9456
:10285000560BDECF60E1812FE0DD0E94700B81E03E
:1028600090E00F900F90DF91CF911F910F910895FD
:102870008EBD00000DB407FEFDCF8EB508952C98D7
:1028800008952C9A08951F93CF93DF931F921F9260
:10289000CDB7DEB7182F6A839983F1DF80EFE8DFC9
:1028A0009981892FE5DF812FE3DF6A81862FE0DFC1
:1028B000E8DF81E00F900F90DF91CF911F91089595
:1028C000CF93DF93EC016CE271E080E090E00E9436
:1028D0000B0430D2249A80916705882399F09FB722
:1028E000F89480916705813059F48DB38093650524
:1028F0002DB380916605809582238DBB9FBF02C05A
:102900009093650580E58CBD1DBC60E880E090E09B
:10291000BADF65E58BE190E0B6DF65E58AE190E03E
:10292000B2DF80916705882361F09FB7F89420910A
:10293000670580916505213019F48DBB9FBF01C0EB
:102940008FBF80E090E49983888380E090E6998748
:10295000888780E098E49B838A8380E098E69B8761
:102960008A8780E090E59D838C8380E090E79D8757
:102970008C8780E098E59F838E8380E098E79F872F
:102980008E87DF91CF910895CF92DF92EF92FF92E1
:102990000F931F93CF93DF93EC017A018B016C01AE
:1029A000C40ED51ECC15DD0571F069DF80EF60DF48
:1029B0008D2F5EDF8C2F5CDF2196F80181918F01D6
:1029C00057DF5FDFEFCFC701DF91CF911F910F91ED
:1029D000FF90EF90DF90CF9008951F93CF93DF93F8
:1029E0001F92CDB7DEB7182F998349DF8FE040DF04
:1029F0009981892F3DDF812F3BDF80E039DF89839B
:102A000040DF89810F90DF91CF911F9108951F932F
:102A1000CF93DF93182F60E270E0D9DCC82FD0E0AD
:102A200061E270E0812FD3DCDC2FCC279E01282BC4
:102A3000C901DF91CF911F910895FF920F931F93CA
:102A4000CF93DF93F62EC0E0D0E08F2DE0DF8C0136
:102A5000009719F08F2DDBDFEC01C017D107A9F724
:102A6000CE01DF91CF911F910F91FF9008951F9399
:102A7000CF93DF93182F66E270E0A9DCC82FD0E077
:102A800067E270E0812FA3DCDC2FCC279E01282B8E
:102A9000C901DF91CF911F910895FF920F931F936A
:102AA000CF93DF93F62EC0E0D0E08F2DE0DF8C01D6
:102AB000009719F08F2DDBDFEC01C017D107A9F7C4
:102AC000CE01DF91CF911F910F91FF9008956F92EA
:102AD0007F929F92AF92BF92CF92DF92EF92FF923E
:102AE0000F931F93CF93DF931F92CDB7DEB7D82EEE
:102AF000962E3A01590164E270E0892D998367DCD2
:102B0000E82EF12C65E270E0892D61DCFE2CEE24CC
:102B1000E82AE60CF71C970137706D2C9981792E05
:102B2000690C711C690C711CD301ED91FC91E20FD1
:102B3000F31FC901800F911F8130984098F0C12C7C
:102B400048E0D42EC21AD30AA601B501CF011CDF7A
:102B5000A8014C195D09B5016C0D7D1DF301808143
:102B6000918103C0A801B501CF010EDFE00EF11E77
:102B70004F2D64E270E0892D36DC4E2D65E270E069
:102B8000892D0F90DF91CF911F910F91FF90EF90C2
:102B9000DF90CF90BF90AF909F907F906F9023CCAD
:102BA000CF92DF92EF92FF920F931F93CF93DF9319
:102BB000EC017A018B016C01C40ED51ECC15DD052C
:102BC00079F05DDE8FE054DE8D2F52DE8C2F50DEEB
:102BD000219680E04DDEF80181938F0152DEEECF29
:102BE000C701DF91CF911F910F91FF90EF90DF9080
:102BF000CF900895AF92BF92CF92DF92EF92FF9263
:102C00000F931F93CF93DF931F921F92CDB7DEB721
:102C10005A8349835901E981FA81F7707C01E60EF4
:102C2000F11CE60EF11CD70118968D919C91199715
:102C30008E0F9F1F98012E0F3F1F2130384090F0BC
:102C4000C12C68E0D62ECE1ADF0AA601B501A8DF96
:102C5000A8014C195D09B5016C0D7D1DF70180853A
:102C6000918502C0A801B5010F900F90DF91CF911F
:102C70001F910F91FF90EF90DF90CF90BF90AF909A
:102C80008FCF8F929F92AF92BF92CF92DF92EF92AF
:102C9000FF920F931F93CF93DF936C01962E5A01EF
:102CA0007901802E68E270E0892D91DBC82FD0E099
:102CB00069E270E0892D8BDBDC2FCC27C82B8701E4
:102CC0009501AE01692DC60195DF811018C0CE0DAA
:102CD000DF1D4D2F68E270E0892D85DB4C2F69E206
:102CE00070E0892DDF91CF911F910F91FF90EF90B0
:102CF000DF90CF90BF90AF909F908F9074CBDF917B
:102D0000CF911F910F91FF90EF90DF90CF90BF90E8
:102D1000AF909F908F900895CF93C62F61E070E0A1
:102D20008C2F61DB61E070E08C2F51DB8111FACFD9
:102D3000CF910895CF93CFB7F89480916805811112
:102D400016C061E085E30E941F0561E085E30E94F3
:102D5000E6048CB580618CBD8CB580648CBD61E06F
:102D600084E30E94E60461E083E30E94E60480912C
:102D700068058F5F80936805CFBFCF910895CF938B
:102D8000DF931F921F92CDB7DEB720916B0581E0D4
:102D9000820F80936B05222349F081E090E09093AD
:102DA0006E0580936D0520936B053EC0CE010196A4
:102DB0000E945101789480E090E00E94D101F89443
:102DC00080916B05815080936B058A81882389F0FF
:102DD00020916A0581E0820F80936A05222349F0E1
:102DE00081E090E090936E0580936D0520936A05D5
:102DF0001BC080916A058823B9F080916C05811110
:102E000013C081E080936C05789481E090E00E948B
:102E1000D101F89480916A05815080936A05809170
:102E20006C05815080936C050F900F90DF91CF91CE
:102E300008950F931F93CF93DF931F92CDB7DEB703
:102E400081E089830E9430040E94680A0091200278
:102E500010912102F801118210820E94D8010E9473
:102E6000370B21E0F80180819181892B09F020E066
:102E70002983789478948981882349F021E0F801A6
:102E800080819181892B09F020E02983F4CF0E9471
:102E90000802F89480E090E00F90DF91CF911F91AD
:102EA0000F9108952FD008F481E0089557D088F04D
:102EB0009F5790F0B92F9927B751A0F0D1F0660F26
:102EC000771F881F991F1AF0BA95C9F712C0B13041
:102ED00081F05ED0B1E008955BC0672F782F88271E
:102EE000B85F39F0B93FCCF3869577956795B39580
:102EF000D9F73EF490958095709561957F4F8F4FEF
:102F00009F4F0895990F0008550FAA0BE0E8FEEFB8
:102F100016161706E807F907C0F012161306E4079D
:102F2000F50798F0621B730B840B950B39F40A2696
:102F300061F0232B242B252B21F408950A2609F474
:102F4000A140A6958FEF811D811D089557FD9058D2
:102F5000440F551F59F05F3F71F04795880F97FB5D
:102F6000991F61F09F3F79F0879508951216130617
:102F70001406551FF2CF4695F1DF08C01616170646
:102F80001806991FF1CF869571056105089408957B
:102F9000E894BB2766277727CB0197F90895B2DF1E
:102FA00008F48FEF0895A1E21A2EAA1BBB1BFD01A6
:102FB0000DC0AA1FBB1FEE1FFF1FA217B307E40718
:102FC000F50720F0A21BB30BE40BF50B661F771F70
:102FD000881F991F1A9469F7609570958095909550
:102FE0009B01AC01BD01CF010895EE0FFF1F0590BD
:102FF000F491E02D19940790F691E02D1994F8942E
:02300000FFCF00
:1030020000007F05800001000000090000000800A8
:103012000000D5DD000000FFD5DDDEADBEEFFEED28
:10302200750500000000C305160954056D055F050E
:10303200A20500000000AF080000000005104B10C0
:1030420001105E10A2101B10BA102D104110481171
:0C3052004810E5108610E60FED0FFD0F92
:00000001FF
