:100000004BC1000079C30000A8C30000D7C30000A3
:1000100006C4000035C4000064C4000093C400009E
:10002000C2C400006AC1000068C1000066C10000CF
:1000300064C100000C94EC0B60C100005EC10000C4
:100040005CC100005AC1000058C1000056C1000048
:1000500054C1000052C1000050C10000D5C40000CE
:100060004CC10000F9C700000C94620846C10000B2
:1000700044C1000042C1000040C100003EC1000078
:100080003CC100003AC1000038C1000036C1000088
:100090000C94CE080C94040930C100002EC100005D
:1000A0002CC100002AC1000028C1000026C10000A8
:1000B00024C1000022C1000020C100001EC10000B8
:1000C0001CC100001AC1000018C100000C94700986
:1000D0000C94A60912C100000C94120A0C94480A50
:1000E0000CC10000F705FC0501060B0615068E067F
:1000F0001F0627062F06390643064D065C066606D0
:100100008E0670067A068406B006B306A206A60618
:10011000AC06EA06B706BB06C106C506C906CF0689
:10012000D306D706EA06DD06E106E506080000006C
:10013000BE922449123EABAAAA2ABECDCCCC4C3EDC
:1001400000000080BEABAAAAAA3E00000000BF00CB
:100150000000803F0000000000084178D3BB4387C7
:10016000D1133D190E3CC3BD4282AD2B3E68EC82DB
:1001700076BED98FE1A93E4C80EFFFBE01C4FF7F60
:100180003F000000000000000A0B02090C0D0E08E1
:100190000703040100000000000000000000000050
:1001A000000000000000000000000000000000004F
:1001B000000012111000000000000000000000000C
:1001C00000000000000000000000000001021020FC
:1001D000200808102040102040800201020108047D
:1001E0000201010204081020408080402010080411
:1001F000020180040201804020100804020108046A
:1002000002010102040810204080010204081020AD
:1002100040800505050507050808080802020202D6
:100220000A0A080804040404010101010101010192
:100230000303030303030303040707070C0C0C0C5D
:100240000C0C0C0C02020202060606060606060646
:100250000B0B0B0B0B0B0B0B0000220025002800D7
:100260002B002E00310034000201000005010801BE
:100270000B0100002100240027002A002D0030007F
:10028000330001010000040107010A0102008B088C
:100290002D09CF09710AEB0A11241FBECFEFD1E25D
:1002A000DEBFCDBF00E00CBF12E0A0E0B2E0ECED9D
:1002B000FFE100E00BBF02C007900D92A432B1072E
:1002C000D9F724E0A4E2B2E001C01D92A93EB20732
:1002D000E1F712E0C8E9D2E000E006C02297010988
:1002E000FE010BBF0E94D90FCE38D10780E008076E
:1002F000A9F70E949C0C0C94EC0F82CE8F929F92D7
:10030000AF92BF92CF92DF92EF92FF92CF93DF93A3
:10031000EC01688179818A819B812DE133EF41E095
:1003200050E00E94A70F49015A019B01AC01A7EAC6
:10033000B1E40E94CF0F6B017C01A4E1BBE0A501F9
:1003400094010E94CF0FC616D706E806F90630F4CE
:1003500021E0C21AD108E10820E8F20AC61AD70A39
:10036000E80AF90AC882D982EA82FB826881798127
:100370008A819B810E94CD0D20E030E040E050E377
:100380000E94C80EDF91CF91FF90EF90DF90CF9049
:10039000BF90AF909F908F9008958F929F92AF9251
:1003A000BF92CF92DF92EF92FF92CF93DF93EC0157
:1003B000CE01A4DF9B01AC010E94D10C20E030E013
:1003C00040E85FE30E94D00C6B017C01CE0196DF18
:1003D0009B01AC010E94D10C20E030E040E85FE3DB
:1003E0000E94D00C9B01AC010E94C80E4B015C0125
:1003F000A7019601C701B6010E94C80EA50194018C
:100400000E94D10C4B015C0120E030E040E85FE34A
:100410000E947F0E181664F2C501B4010E94880E76
:1004200020E030E040E050EC0E94C80EA5019401AD
:100430000E94390D0E942F0FA70196010E94C80E3D
:10044000DF91CF91FF90EF90DF90CF90BF90AF9072
:100450009F908F900895CF92DF92EF92FF926091DC
:10046000D5047091D6048091D7049091D80420913E
:10047000E704211104C081E08093E70411C022EC5D
:1004800032E64AE450E40E94C80E2091E80421308C
:10049000B9F420E030E0A9010E947F0E181614F58F
:1004A00082E08093E80480E090E0A0E8BFE38093DE
:1004B000D1049093D204A093D304B093D40412C077
:1004C00020E030E0A9010E94350D87FF0BC081E0DC
:1004D0008093E8041092D1041092D2041092D304B5
:1004E0001092D404C090D104D090D204E090D304F0
:1004F000F090D40420E030E040E853E4C701B601B6
:100500000E94350D87FF0EC020E030E0A901C70131
:10051000B6010E947F0E87FD07C0C701B6010E9489
:10052000A10D03C06FEF01C060E089E08DD4809120
:10053000CC04811192C023EF34E045EB5FE360917E
:10054000D9047091DA048091DB049091DC040E945C
:10055000C80E20E030E046E952E40E94C80E6B016C
:100560007C018091E504811104C081E08093E50461
:1005700038C08091E60420E030E0A9018130A9F480
:10058000C701B6010E947F0E18165CF1A701960103
:100590006091CD047091CE048091CF049091D004ED
:1005A0000E94350D882341F109C0C701B6010E94A0
:1005B000350D87FF08C081E08093E604F7FAF094D8
:1005C000F7F8F09411C02091CD043091CE04409101
:1005D000CF045091D004C701B6010E94350D882385
:1005E00059F082E08093E604C092CD04D092CE040C
:1005F000E092CF04F092D004C090CD04D090CE040D
:10060000E090CF04F090D00420E030E040E853E4E4
:10061000C701B6010E94350D87FF0EC020E030E013
:10062000A901C701B6010E947F0E87FD07C0C7015F
:10063000B6010E94A10D03C06FEF01C060E070E041
:1006400085E0B1D281EE94E0A8DE6093D904709386
:10065000DA048093DB049093DC048DED94E09DDE5E
:100660006093D5047093D6048093D7049093D804F4
:100670008091CC048F5F853018F48093CC0402C045
:100680001092CC04FF90EF90DF90CF90089561E03E
:1006900089E0A1D361E085E09ED380E090E0ADE207
:1006A000BBE58093DD049093DE04A093DF04B09358
:1006B000E0048DED94E071DE6093D5047093D60470
:1006C0008093D7049093D80480E090E0ABE7B0E04B
:1006D0008093E1049093E204A093E304B093E404D4
:1006E00081EE94E05ADE6093D9047093DA0480932B
:1006F000DB049093DC0408951F920F920FB60F92C3
:1007000011240BB60F922F933F934F935F936F93E8
:100710007F938F939F93AF93BF93EF93FF938091BA
:10072000280290912902892B29F0E0912802F0916A
:1007300029021995FF91EF91BF91AF919F918F91F0
:100740007F916F915F914F913F912F910F900BBED1
:100750000F900FBE0F901F9018951F920F920FB61B
:100760000F9211240BB60F922F933F934F935F93E9
:100770006F937F938F939F93AF93BF93EF93FF9369
:1007800080912A0290912B02892B29F0E0912A0274
:10079000F0912B021995FF91EF91BF91AF919F912D
:1007A0008F917F916F915F914F913F912F910F901A
:1007B0000BBE0F900FBE0F901F9018951F920F92B7
:1007C0000FB60F9211240BB60F922F933F934F93B6
:1007D0005F936F937F938F939F93AF93BF93EF93A9
:1007E000FF9380912C0290912D02892B29F0E091AA
:1007F0002C02F0912D021995FF91EF91BF91AF91CD
:100800009F918F917F916F915F914F913F912F9128
:100810000F900BBE0F900FBE0F901F9018951F9258
:100820000F920FB60F9211240BB60F922F933F9396
:100830004F935F936F937F938F939F93AF93BF93E8
:10084000EF93FF9380912E0290912F02892B29F034
:10085000E0912E02F0912F021995FF91EF91BF9137
:10086000AF919F918F917F916F915F914F913F9148
:100870002F910F900BBE0F900FBE0F901F901895E9
:100880001F920F920FB60F9211240BB60F922F9357
:100890003F934F935F936F937F938F939F93AF9308
:1008A000BF93EF93FF938091240290912502892BAF
:1008B00029F0E0912402F09125021995FF91EF9122
:1008C000BF91AF919F918F917F916F915F914F9168
:1008D0003F912F910F900BBE0F900FBE0F901F9066
:1008E00018951F920F920FB60F9211240BB60F920C
:1008F0002F933F934F935F936F937F938F939F9328
:10090000AF93BF93EF93FF938091260290912702BC
:10091000892B29F0E0912602F09127021995FF9189
:10092000EF91BF91AF919F918F917F916F915F9167
:100930004F913F912F910F900BBE0F900FBE0F90D4
:100940001F9018951F920F920FB60F9211240BB69D
:100950000F922F933F934F935F936F937F938F9358
:100960009F93AF93BF93EF93FF9380913002909149
:100970003102892B29F0E0913002F0913102199572
:10098000FF91EF91BF91AF919F918F917F916F9167
:100990005F914F913F912F910F900BBE0F900FBE23
:1009A0000F901F9018951F920F920FB60F9211245F
:1009B0000BB60F922F933F934F935F936F937F9359
:1009C0008F939F93AF93BF93EF93FF9380913202E6
:1009D00090913302892B29F0E0913202F091330299
:1009E0001995FF91EF91BF91AF919F918F917F9159
:1009F0006F915F914F913F912F910F900BBE0F9090
:100A00000FBE0F901F9018951F920F920FB60F9266
:100A100011242F933F938F939F93AF93BF93809114
:100A2000350290913602A0913702B0913802309190
:100A3000340223E0230F2D3720F40196A11DB11DB0
:100A400005C026E8230F0296A11DB11D2093340294
:100A50008093350290933602A0933702B093380208
:100A60008091390290913A02A0913B02B0913C02F0
:100A70000196A11DB11D8093390290933A02A09373
:100A80003B02B0933C02BF91AF919F918F913F91F8
:100A90002F910F900FBE0F901F9018953FB7F894AD
:100AA0008091390290913A02A0913B02B0913C02B0
:100AB00026B5A89B05C02F3F19F00196A11DB11DB9
:100AC0003FBF6627782F892F9A2F620F711D811DD6
:100AD000911D42E0660F771F881F991F4A95D1F735
:100AE0000895789484B5826084BD84B5816084BDA6
:100AF00085B5826085BD85B5816085BDEEE6F0E097
:100B0000808181608083E1E8F0E0108280818260F2
:100B10008083808181608083E0E8F0E08081816073
:100B20008083E1EBF0E0808184608083E0EBF0E0A3
:100B3000808181608083E1E9F0E080818260808350
:100B4000808181608083E0E9F0E080818160808342
:100B5000E1EAF0E08081826080838081816080832F
:100B6000E0EAF0E0808181608083E1E2F1E0808171
:100B700082608083808181608083E0E2F1E0808117
:100B800081608083EAE7F0E08081846080838081F7
:100B9000826080838081816080838081806880839F
:100BA0001092C10008951F93CF93DF93182FEB018C
:100BB00061E011D1209711F460E004C0CF3FD1056E
:100BC00031F461E0812FDF91CF911F913DC1E12F81
:100BD000F0E0EA57FE4F449150E0FA013197E231DC
:100BE000F10508F09BC0EE58FF4F0C94C90F84B577
:100BF000806884BDC7BD97C084B5806284BDC8BD10
:100C000092C080918000806880938000D09389009A
:100C1000C093880088C080918000806280938000AB
:100C2000D0938B00C0938A007EC080918000886042
:100C300080938000D0938D00C0938C0074C080910D
:100C4000B00080688093B000C093B3006CC0809106
:100C5000B00080628093B000C093B40064C0809103
:100C60009000806880939000D0939900C093980082
:100C70005AC080919000806280939000D0939B0036
:100C8000C0939A0050C0809190008860809390003B
:100C9000D0939D00C0939C0046C08091A0008068C6
:100CA0008093A0008091A0008F7B8093A000D093C0
:100CB000A900C093A80037C08091A00080628093F3
:100CC000A000D093AB00C093AA002DC08091A000DB
:100CD00088608093A000D093AD00C093AC0023C087
:100CE00080912001806880932001D0932901C093D6
:100CF000280119C080912001806280932001D09347
:100D00002B01C0932A010FC080912001886080933D
:100D10002001D0932D01C0932C0105C0C038D1050E
:100D20000CF04FCF49CFDF91CF911F91089590E004
:100D3000FC013197E231F10508F04CC0EC57FF4F50
:100D40000C94C90F809180008F7703C08091800040
:100D50008F7D80938000089580918000877FF9CFF8
:100D600084B58F7702C084B58F7D84BD089580914E
:100D7000B0008F7703C08091B0008F7D8093B0006A
:100D80000895809190008F7707C0809190008F7DAB
:100D900003C080919000877F809390000895809198
:100DA000A0008F7707C08091A0008F7D03C0809145
:100DB000A000877F8093A0000895809120018F7705
:100DC00007C0809120018F7D03C080912001877F23
:100DD000809320010895CF93DF9390E0FC01E453CA
:100DE000FE4F2491FC01EE5EFD4F8491882349F172
:100DF00090E0880F991FFC01EE58FD4FA591B4912A
:100E0000885A9D4FFC01C591D4919FB7611108C0CC
:100E1000F8948C91209582238C93888182230AC038
:100E2000623051F4F8948C91322F309583238C9357
:100E30008881822B888304C0F8948C91822B8C93B8
:100E40009FBFDF91CF9108950F931F93CF93DF93AF
:100E50001F92CDB7DEB7282F30E0F901EA57FE4FD9
:100E60008491F901E453FE4F1491F901EE5EFD4FB8
:100E700004910023C1F0882319F0698358DF698148
:100E8000E02FF0E0EE0FFF1FE85AFD4FA591B4915F
:100E90009FB7F8948C91611103C01095812301C014
:100EA000812B8C939FBF0F90DF91CF911F910F915A
:100EB0000895FC01818D228D90E0805C9F4F821B04
:100EC00091098F7399270895FC01918D828D981750
:100ED00031F0828DE80FF11D858D90E008958FEF40
:100EE0009FEF0895FC01918D828D981761F0828D9E
:100EF000DF01A80FB11D5D968C91928D9F5F9F734E
:100F0000928F90E008958FEF9FEF0895FC01848DFC
:100F1000DF01A80FB11DA35ABF4F2C91848D90E023
:100F200001968F739927848FA689B7892C93A089FE
:100F3000B1898C9180648C93938D848D981306C0B5
:100F40000288F389E02D80818F7D80830895CF937F
:100F5000DF93EC01888D8823C1F0EA89FB898081C9
:100F600085FD05C0A889B9898C9186FD0EC00FB694
:100F700007FCF5CF808185FFF2CFA889B9898C91D4
:100F800085FFEDCFCE01C2DFE8CFDF91CF9108958D
:100F9000CF92DF92FF920F931F93CF93DF931F9215
:100FA000CDB7DEB76C01DC015B969C915B975C96DC
:100FB0008C915C97981307C05096ED91FC915197D6
:100FC000808185FD31C0F601038D10E00F5F1F4F5A
:100FD0000F731127F02EF601848DF81210C00FB692
:100FE00007FCF9CFD6015096ED91FC915197808185
:100FF00085FFF1CFC601698389DF6981ECCF838DDD
:10100000E80FF11DE35AFF4F6083D6015B960C9306
:101010005B975296ED91FC9153978081806280831B
:1010200081E058968C930DC0D6015696ED91FC91B7
:10103000579760835096ED91FC9151978081806421
:10104000808381E090E00F90DF91CF911F910F910D
:10105000FF90DF90CF9008951F920F920FB60F92DE
:1010600011240BB60F922F938F939F93EF93FF93BF
:10107000E0914D02F0914E028081E0915302F09197
:10108000540282FD12C09081809156028F5F8F734F
:1010900020915702821751F0E0915602F0E0E35C94
:1010A000FD4F958F8093560201C08081FF91EF9193
:1010B0009F918F912F910F900BBE0F900FBE0F90AD
:1010C0001F9018951F920F920FB60F9211240BB616
:1010D0000F922F933F934F935F936F937F938F93D1
:1010E0009F93AF93BF93EF93FF938DE392E00EDF57
:1010F000FF91EF91BF91AF919F918F917F916F91F0
:101100005F914F913F912F910F900BBE0F900FBEAB
:101110000F901F9018951092400210923F0288EE97
:1011200093E0A0E0B0E08093410290934202A0934C
:101130004302B093440281E192E090933E02809397
:101140003D0285EC90E090934A028093490284EC42
:1011500090E090934C0280934B0280EC90E090934F
:101160004E0280934D0281EC90E090935002809368
:101170004F0282EC90E0909352028093510286ECF1
:1011800090E0909354028093530210925602109272
:101190005702109258021092590208951F920F920E
:1011A0000FB60F9211240BB60F922F938F939F932C
:1011B000EF93FF93E091EA02F091EB028081E091DE
:1011C000F002F091F10282FD12C090818091F30251
:1011D0008F5F8F732091F402821751F0E091F30238
:1011E000F0E0E652FD4F958F8093F30201C08081BD
:1011F000FF91EF919F918F912F910F900BBE0F90C8
:101200000FBE0F901F9018951F920F920FB60F925E
:1012100011240BB60F922F933F934F935F936F93CD
:101220007F938F939F93AF93BF93EF93FF938AED39
:1012300092E06CDEFF91EF91BF91AF919F918F9102
:101240007F916F915F914F913F912F910F900BBEC6
:101250000F900FBE0F901F9018951092DD02109204
:10126000DC0288EE93E0A0E0B0E08093DE02909391
:10127000DF02A093E002B093E10281E192E090935B
:10128000DB028093DA028DEC90E09093E70280938A
:10129000E6028CEC90E09093E9028093E80288ECFF
:1012A00090E09093EB028093EA0289EC90E09093B7
:1012B000ED028093EC028AEC90E09093EF02809331
:1012C000EE028EEC90E09093F1028093F002109287
:1012D000F3021092F4021092F5021092F6020895B1
:1012E0001F920F920FB60F9211240BB60F922F93ED
:1012F0008F939F93EF93FF93E0918703F09188037F
:101300008081E0918D03F0918E0382FD12C0908167
:10131000809190038F5F8F7320919103821751F01A
:10132000E0919003F0E0E958FC4F958F8093900393
:1013300001C08081FF91EF919F918F912F910F902C
:101340000BBE0F900FBE0F901F9018951F920F921B
:101350000FB60F9211240BB60F922F933F934F931A
:101360005F936F937F938F939F93AF93BF93EF930D
:10137000FF9387E793E0CADDFF91EF91BF91AF91B3
:101380009F918F917F916F915F914F913F912F919D
:101390000F900BBE0F900FBE0F901F9018951092DC
:1013A0007A031092790388EE93E0A0E0B0E0809396
:1013B0007B0390937C03A0937D03B0937E0381E134
:1013C00092E0909378038093770385ED90E090937B
:1013D00084038093830384ED90E09093860380934D
:1013E000850380ED90E0909388038093870381EDDF
:1013F00090E090938A038093890382ED90E090932C
:101400008C0380938B0386ED90E090938E03809302
:101410008D031092900310929103109292031092F8
:10142000930308951F920F920FB60F9211240BB6DB
:101430000F922F938F939F93EF93FF93E091240448
:10144000F09125048081E0912A04F0912B0482FD23
:1014500012C0908180912D048F5F8F7320912E0494
:10146000821751F0E0912D04F0E0EC5EFB4F958F78
:1014700080932D0401C08081FF91EF919F918F9106
:101480002F910F900BBE0F900FBE0F901F901895CD
:101490001F920F920FB60F9211240BB60F922F933B
:1014A0003F934F935F936F937F938F939F93AF93EC
:1014B000BF93EF93FF9384E194E028DDFF91EF91D8
:1014C000BF91AF919F918F917F916F915F914F915C
:1014D0003F912F910F900BBE0F900FBE0F901F905A
:1014E0001895109217041092160488EE93E0A0E06D
:1014F000B0E08093180490931904A0931A04B09359
:101500001B0481E192E0909315048093140485E319
:1015100091E0909321048093200484E391E09093E0
:1015200023048093220480E391E090932504809328
:10153000240481E391E0909327048093260482E3BE
:1015400091E0909329048093280486E391E090939E
:101550002B0480932A0410922D0410922E041092D2
:101560002F04109230040895AF92BF92CF92DF9271
:10157000EF92FF920F931F93CF93DF936C017B0148
:10158000C0E0D0E000E010E0F601EC0FFD1F4AE003
:1015900050E06281C701D6D05C016EE2C70168D01D
:1015A0008A0D9B1D080F191F2196C330D10561F7C5
:1015B0004AE050E0F6016581C701C4D0800F911F59
:1015C000DF91CF911F910F91FF90EF90DF90CF901F
:1015D000BF90AF90089581E292E09093B20480931F
:1015E000B1041092B3041092B4041092B504109296
:1015F000B6040895CF92DF92EF92FF920F931F935C
:10160000CF93DF936C017A01EB01E60EF71E00E049
:1016100010E0CE15DF0561F06991D601ED91FC91E6
:101620000190F081E02DC6011995080F191FF1CF27
:10163000C801DF91CF911F910F91FF90EF90DF9044
:10164000CF9008956115710581F0DB010D900020A8
:10165000E9F7AD0141505109461B570BDC01ED91F3
:10166000FC910280F381E02D199480E090E00895D0
:10167000DC01ED91FC910190F081E02D19948F92A5
:101680009F92AF92BF92CF92DF92EF92FF920F9311
:101690001F93CF93DF93CDB7DEB7A1970FB6F89422
:1016A000DEBF0FBECDBF7C01C42EE52FCB01D22EF5
:1016B00019A221E02D1510F02AE0D22E8E010F5D27
:1016C0001F4F8D2C912CA12CB12C6C2D7E2FA501A0
:1016D00094013DD48C2DD29E801911240150110902
:1016E0008A3014F4805D01C0895CF8018083211583
:1016F00031054105510521F0C22EE32FCA01E5CF86
:10170000B801C7019FDFA1960FB6F894DEBF0FBEE8
:10171000CDBFDF91CF911F910F91FF90EF90DF90A0
:10172000CF90BF90AF909F908F9008952115310575
:1017300041F4DC01ED91FC910190F081E02D642FEA
:1017400019949DCF9A01462F50E060E070E0EECFF3
:101750008230A9F028F4882349F0813051F00895AF
:10176000843009F1E8F0853009F1089510926E0097
:10177000089580916F008D7F80936F000895809110
:1017800070008D7F8093700081E08093B000809125
:10179000B100887F84608093B1001092B3000895F7
:1017A00010927100089510927200089510927300C3
:1017B0000895CF93C82F80910A028C1307C0ECE8DC
:1017C000F2E084919FEF90930A0201C08FEFC0DF97
:1017D00060E08C2FCF9138CB1F920F920FB60F92F3
:1017E00011240BB60F922F933F934F935F936F93F8
:1017F0007F938F939F93AF93BF93EF93FF938091CA
:10180000BA049091BB04A091BC04B091BD04892B93
:101810008A2B8B2B51F19091B704E091B804F09191
:10182000B9048081892780838091BA049091BB0498
:10183000A091BC04B091BD04181619061A061B0627
:10184000BCF48091BA049091BB04A091BC04B09107
:10185000BD040197A109B1098093BA049093BB0418
:10186000A093BC04B093BD0403C080910A02A1DF21
:10187000FF91EF91BF91AF919F918F917F916F9168
:101880005F914F913F912F910F900BBE0F900FBE24
:101890000F901F90189508950895CF92DF92EF92C0
:1018A000FF920F931F93FAD86093BE047093BF0406
:1018B0008093C0049093C1040091C2041091C304AA
:1018C0002091C4043091C5046B017C01C01AD10A77
:1018D000E20AF30A40EAC41646E8D40641E0E40608
:1018E000F10448F06093C2047093C3048093C4046D
:1018F0009093C50408D081E01F910F91FF90EF9065
:10190000DF90CF9008952091C60481E0820F8093EC
:10191000C604222349F081E090E09093C8048093AC
:10192000C7042093C60408950E942B028091C60428
:1019300081508093C60408950F931F93CF93DF9334
:101940001F92CDB7DEB781E08983CBD8A4DF0091A9
:101950000B0210910C02F801118210820E944703C1
:101960009BDF21E0F80180819181892B09F020E043
:10197000298378948981882351F08FDF21E0F80151
:1019800080819181892B09F020E02983F3CFF8949D
:1019900080E090E00F90DF91CF911F910F9108951B
:1019A0005058BB27AA270ED070C161D130F066D144
:1019B00020F031F49F3F11F41EF456C10EF4E0956F
:1019C000E7FB4CC1E92F72D180F3BA1762077307A6
:1019D0008407950718F071F49EF58AC10EF4E0951E
:1019E0000B2EBA2FA02D0B01B90190010C01CA01D9
:1019F000A0011124FF27591B99F0593F50F4503E84
:101A000068F11A16F040A22F232F342F4427585F75
:101A1000F3CF469537952795A795F0405395C9F78D
:101A20007EF41F16BA0B620B730B840BBAF0915045
:101A3000A1F0FF0FBB1F661F771F881FC2F70EC0E4
:101A4000BA0F621F731F841F48F4879577956795B7
:101A5000B795F7959E3F08F0B3CF9395880F08F0A0
:101A60009927EE0F979587950895D4D008F481E0D3
:101A700008950CD00AC102D140F0F9D030F021F421
:101A80005F3F19F0EBC0511134C1EEC00FD198F394
:101A90009923C9F35523B1F3951B550BBB27AA27EF
:101AA00062177307840738F09F5F5F4F220F331F61
:101AB000441FAA1FA9F333D00E2E3AF0E0E830D02D
:101AC00091505040E695001CCAF729D0FE2F27D030
:101AD000660F771F881FBB1F261737074807AB07FE
:101AE000B0E809F0BB0B802DBF01FF2793585F4F73
:101AF0002AF09E3F510568F0B1C0FBC05F3FECF398
:101B0000983EDCF3869577956795B795F7959F5F37
:101B1000C9F7880F911D9695879597F90895E1E08B
:101B2000660F771F881FBB1F621773078407BA07EA
:101B300020F0621B730B840BBA0BEE1F88F7E09545
:101B40000895BCD088F09F5790F0B92F9927B751CE
:101B5000A0F0D1F0660F771F881F991F1AF0BA9571
:101B6000C9F712C0B13081F0C3D0B1E00895C0C050
:101B7000672F782F8827B85F39F0B93FCCF3869567
:101B800077956795B395D9F73EF4909580957095C4
:101B900061957F4F8F4F9F4F0895E89409C097FB41
:101BA0003EF490958095709561957F4F8F4F9F4F34
:101BB0009923A9F0F92F96E9BB279395F695879578
:101BC00077956795B795F111F8CFFAF4BB0F11F43B
:101BD00060FF1BC06F5F7F4F8F4F9F4F16C08823E2
:101BE00011F096E911C0772321F09EE8872F762F18
:101BF00005C0662371F096E8862F70E060E02AF059
:101C00009A95660F771F881FDAF7880F9695879544
:101C100097F90895990F0008550FAA0BE0E8FEEF19
:101C200016161706E807F907C0F012161306E407A0
:101C3000F50798F0621B730B840B950B39F40A2699
:101C400061F0232B242B252B21F408950A2609F477
:101C5000A140A6958FEF811D811D089597F99F677B
:101C600080E870E060E008959FEF80EC0895002424
:101C70000A941616170618060906089500240A94F1
:101C800012161306140605060895092E0394000C77
:101C900011F4882352F0BB0F40F4BF2B11F460FF06
:101CA00004C06F5F7F4F8F4F9F4F089557FD90582F
:101CB000440F551F59F05F3F71F04795880F97FB10
:101CC000991F61F09F3F79F08795089512161306CA
:101CD0001406551FF2CF4695F1DF08C016161706F9
:101CE0001806991FF1CF869571056105089408952E
:101CF000E894BB2766277727CB0197F908958ADFF9
:101D000008F48FEF08950EF0E8C0AECF6894A6CF28
:101D1000D5DFC8F39923D1F3C6F3DF93CF931F9395
:101D20000F93FF92C92FDD2788232AF02197660F92
:101D3000771F881FDAF720E030E040E85FEB9FE391
:101D4000883920F0803E30F021968F772ADEECE251
:101D5000F1E003C026DEE9E5F1E0D4D08B01BE015D
:101D6000EC01FB2E6F5771097595771F880B990B46
:101D700016DF28E132E741E35FE316D0AF2D98018B
:101D8000AE01FF900F911F91CF91DF911BDE7DCFB0
:101D90000BD07BCF6CDF28F071DF18F0952309F0B2
:101DA0005DCF62CF1124A5CF81DFA0F3959FD1F342
:101DB000950F50E0551F629FF001729FBB27F00DF9
:101DC000B11D639FAA27F00DB11DAA1F649F66274E
:101DD000B00DA11D661F829F2227B00DA11D621F9D
:101DE000739FB00DA11D621F839FA00D611D221F57
:101DF000749F3327A00D611D231F849F600D211D3B
:101E0000822F762F6A2F11249F5750408AF0E1F0DD
:101E100088234AF0EE0FFF1FBB1F661F771F881F26
:101E200091505040A9F79E3F510570F017CF61CFF8
:101E30005F3FECF3983EDCF3869577956795B79511
:101E4000F795E7959F5FC1F7FE2B880F911D96953B
:101E5000879597F9089511F40EF406CF3EC02EDF52
:101E6000D0F39923D9F3CEF39F57550B87FF43D077
:101E70000024A0E640EA900180585695979528F4F2
:101E8000805C660F771F881F20F0261737074807EA
:101E900030F4621B730B840B202931294A2BA69541
:101EA00017940794202531254A2758F7660F771F86
:101EB000881F20F026173707480730F4620B730B92
:101EC000840B200D311D411DA09581F7B901842F90
:101ED0009158880F9695879508959F3F31F09150BE
:101EE00020F4879577956795B795880F911D9695FE
:101EF000879597F9089591505040660F771F881F76
:101F0000D2F70895DF93CF931F930F93FF92EF9231
:101F1000DF927B018C01689405C0DA2EEF0144DF6B
:101F2000FE01E894A5912591359145915591AEF327
:101F3000EF0148DDFE019701A801DA9479F7DF90FF
:101F4000EF90FF900F911F91CF91DF910895A1E243
:101F50001A2EAA1BBB1BFD010DC0AA1FBB1FEE1F23
:101F6000FF1FA217B307E407F50720F0A21BB30B6E
:101F7000E40BF50B661F771F881F991F1A9469F7EA
:101F800060957095809590959B01AC01BD01CF0146
:101F90000895EE0FFF1F0590F491E02D19940DD0D8
:101FA000A59F900DB49F900DA49F800D911D1124AD
:101FB00008950790F691E02D1994A29FB001B39F68
:101FC000C001A39F700D811D1124911DB29F700D42
:0C1FD000811D1124911D0895F894FFCF8D
:101FDC000000E904800001000000FFC904000000BB
:101FEC0000C807FA0A590772076407A70700000020
:041FFC0000B40A0023
:00000001FF
